:020000040800F2
:1000000080060020A10100080B33000827300008FB
:100010000933000811050008413C000800000000F9
:10002000000000000000000000000000C9360008C9
:10003000B3050008000000002D330008CB3600088F
:10004000BB010008BB010008BB010008BB010008A0
:1000500009060008BB010008BB010008BB0100083D
:10006000BB010008BB010008BB01000879050008BE
:10007000BB010008BB010008BB010008BB01000870
:10008000BB010008BB010008B502000821050008FB
:1000900015050008BB010008BB010008BB010008F2
:1000A000BB010008BB010008BB010008BB01000840
:1000B000BB010008BB010008BB010008BB01000830
:1000C000BB010008BB010008BB010008BB01000820
:1000D000BB010008BB010008293C0008353C0008B2
:1000E000BB010008BB010008BB010008BB01000800
:1000F000BB010008BB010008BB010008BB010008F0
:10010000BB010008BB010008BB010008BB010008DF
:10011000BB010008BB010008BB010008BB010008CF
:10012000BB010008BB010008BB010008BB010008BF
:10013000BB010008BB010008BB010008BB010008AF
:10014000BB010008BB010008BB010008BB0100089F
:10015000BB010008BB010008BB010008BB0100088F
:10016000BB010008BB010008BB010008BB0100087F
:10017000BB010008BB010008BB0100080000000033
:10018000BB01000841060008DFF810D000F080F83D
:1001900000480047DD3C0008AFF3008080060020E7
:1001A0000648804706480047FEE7FEE7FEE7FEE711
:1001B000FEE7FEE7FEE7FEE7FEE7FEE78937000819
:1001C000890100082DE9F05F0546002092469B4614
:1001D00088460646814640241BE02846414647465D
:1001E000224600F044F853465A46C01A914110D3B3
:1001F00011461846224600F02BF82D1A67EB01082D
:100200004F4622460120002100F022F817EB00099A
:100210004E41201EA4F10104DFDC484631462A4647
:10022000434600F000B830BCBDE8C09F0649074A0D
:100230000868504343F23902104408604008704790
:100240000149086070470000480000206D4EC6411B
:10025000202A04DB203A00FA02F100207047914086
:10026000C2F1200320FA03F3194390407047202A7B
:1002700004DB203A21FA02F00021704721FA02F350
:10028000D040C2F120029140084319467047000057
:10029000064C074D06E0E06840F0010394E80700D3
:1002A00098471034AC42F6D3FFF772FF103F0008B6
:1002B000303F0008014800F04DBC00004C00002019
:1002C00070B5044600680022836813F00C0F52D00A
:1002D000C3689B0105D5E369012B02D1A369012BFA
:1002E00024D002290ED020688268520708D582687F
:1002F000920705D48268214B1A4042F010028260B6
:1003000001290ED020688268120706D582689207FC
:1003100003D4826842F020028260022915D00329AA
:1003200011D0042501F0C4FE064620E00121144B43
:1003300002E09A4211D2521C0568ED436D06F8D4D2
:1003400040220260CFE70C25ECE70825EAE700BF72
:1003500001F0AEFE801B052809D9A06D40F0100009
:10036000A065E06D40F00100E065012070BD2068EF
:1003700080682842ECD1002070BD0000C0FFFF7FE4
:10038000000040A310B50146806A826D12F0500F44
:1003900005D0826DD20623D500F0DAFB10BD816D49
:1003A00041F40071816501680A68120715D5CA68B1
:1003B00012F4406F0ED1C968890400290ADB816DEF
:1003C00021F480718165816DC90403D4816D41F090
:1003D0000101816500F0BAFB10BDC9688907ECE72F
:1003E000006D426BBDE810400846104710B5806AAA
:1003F000816D41F040018165C16D41F00401C1652D
:1004000000F0A6FB10BD10B5806A00F0A0FB10BD87
:1004100070B504460068816801F00301012926D106
:100420000168C90723D0816801F00D01012910D1AD
:100430008168104A1140891C81602168032008608E
:1004400001F036FE05460EE001F032FE401B0228A8
:1004500009D9A06D40F01000A065E06D40F00100EA
:10046000E065012070BD20688068C007ECD10020E5
:1004700070BD0000C0FFFF7FF8B50446002000906B
:100480002068816801F00301012902D10168C907D0
:1004900035D181681B4A114222D18168D543294058
:1004A000491C8160184819490068B0FBF1F000EB65
:1004B0008000400000E0401E00900028FBD101F0C9
:1004C000F7FD064616E0816811F0010F03D181683F
:1004D0002940491C816001F0EBFD801B022809D9ED
:1004E000A06D40F01000A065E06D40F00100E065F7
:1004F0000120F8BD20680168C943C907E3D1002085
:10050000F8BD00003F0000804000002080841E00F5
:10051000FEE70000014800F0F5BF0000B400002035
:10052000014800F0EFBF0000B40000202DE9F041C9
:1005300005460024FF260E4FFFF778FE90FBF6F1EC
:1005400006FB11003855641C082CF5DB0949002016
:100550000822C8600D600A6188600875BDE8F04136
:10056000034BA1F58C701B1F1A1D00F071BE00001B
:100570000C000020CC010020014801F01EBB00004F
:100580003402002030B590F8444004F01C050124EA
:10059000AC40056C6C60046863608368102B036872
:1005A00003D099600068C26030BD9A600068C16085
:1005B00030BD7047124A117F1248012901D003292A
:1005C0000BD1036843F400630360036823F4006302
:1005D0000360036843F400730360022901D0032918
:1005E0000BD1016841F480510160016821F4805110
:1005F0000160016841F4806101600020107770475C
:10060000200000200020024001F0DCBBCA070B499B
:100610004A6902D022F4006201E042F400624A61B9
:100620004A6960F3CA024A61486940F002004861C1
:10063000486940F480304861704700000020024063
:10064000704770477047704770477047F0B5044671
:1006500090F8540000269BB00D4601280DD00120D3
:1006600084F85400324920680027884208D1314973
:10067000009102F01DFD58B10EE002201BB0F0BD4C
:10068000A06D40F02000A06584F854700120F5E7CB
:10069000009802F00DFD48B1A06D40F02000A0656B
:1006A0005FF0010684F854703046E7E722482A6874
:1006B00040F61F71002A826822F460421FD0636BEB
:1006C00042EA43326B681A4382602268936803F0FF
:1006D0000303012B02D11268D207E3D1009A92687A
:1006E00002F00302012A03D1009A1268D207D9D17D
:1006F000AB682A681A4383688B431A4315E082600B
:100700002268936803F00303012B02D11268D20719
:10071000C8D1009A926802F00302012A03D1009A1C
:100720001268D207BED182688A438260BAE70000AD
:100730000000045000010450000304502DE9F84368
:1007400000270446009790F85400DFF8D4930D4634
:10075000B846012811D0012684F85460206802F0C0
:10076000A3FC60B1A06D40F02000A0655FF0010720
:1007700084F854803846BDE8F8830220FBE76868B7
:10078000052812D8022807D0032807D0042807D04C
:10079000052807D0062007E00C2005E0122003E022
:1007A000182001E04FF480706860A9884FF4407C05
:1007B00001F440739CFAACFCBCFA8CFC206823FA70
:1007C0000CF300EB83002A6801F01F014FF01F0CAF
:1007D0000CFA01FC036BC2F3846223EA0C038A4027
:1007E000134303632068816811F00C0F1CD1AA68C1
:1007F000296802F061FC20686969C268C2F3C1021D
:10080000520091402A69042A0FD000EB82002B6825
:10081000DFF810C3026E03F0F84302EA0C020B4348
:100820001A4342F00041016672E0002102F036FCFA
:10083000400320684FF0000173D002F02FFC90FAC3
:10084000A0F0B0FA80F1286842036FD090FAA0F0CF
:10085000B0FA80F0814204D100221146206802F0F3
:100860004EFC0121206802F019FC400320684FF083
:1008700001015ED002F012FC90FAA0F0B0FA80F113
:10088000286842035AD090FAA0F0B0FA80F0814272
:1008900004D100220121206802F031FC02212068ED
:1008A00002F0FCFB400320684FF0020149D002F047
:1008B000F5FB90FAA0F0B0FA80F12868420345D029
:1008C00090FAA0F0B0FA80F0814204D10022022117
:1008D000206802F014FC0321206802F0DFFB4003D3
:1008E00020684FF0030134D002F0D8FB90FAA0F05A
:1008F000B0FA80F12868420330D090FAA0F0B0FA44
:1009000080F0814204D100220321206802F0F7FB2D
:100910002068816801F00301012925D121E000E070
:1009200004E002F0BBFBC0F384618CE7C0F3846099
:1009300090E702F0B3FBC0F38461A1E7C0F38460E9
:10094000A5E702F0ABFBC0F38461B6E7C0F38460B7
:10095000BAE702F0A3FBC0F38461CBE7C0F3846085
:10096000CFE70168C9077DD12A7B296850F8B03FDD
:10097000C1F3120C23EA0C0302F0200C4FF0FF32FB
:1009800002FA0CF20A40C2F312010B430360E96859
:1009900049456AD12868410317D090FAA0F1B1FA0D
:1009A00081F1491C09294FEA40312DD800290FD087
:1009B00090FAA0F1B1FA81F101F1010106FA01F614
:1009C00009D100BFC0F3846109E0C0F38461E8E7A6
:1009D000C0F38461F0E790FAA0F1B1FA81F101F17E
:1009E000010146EA816102D1C0F3846003E090FA1C
:1009F000A0F0B0FA80F000EB40004FF4401202EBA0
:100A0000005041EA00012AE000290CD090FAA0F140
:100A1000B1FA81F101F1010106FA01F606D100BF38
:100A2000C0F3846106E0C0F38461F3E790FAA0F1BB
:100A3000B1FA81F101F1010146EA816102D1C0F30D
:100A4000846003E090FAA0F0B0FA80F0364A00EB40
:100A5000400002EB005041EA000141F00071AA6839
:100A6000206800E001E002F027FBDFF8C0C0296841
:100A70002F4D304B3048614504D1826802F0E0725E
:100A800012020FD5A94204D1826802F0E072D201AD
:100A900008D599427FF46CAE826802F0E07252028F
:100AA0003FF566AE254A264E61451CD1216891422C
:100AB00001D0B142EED18168826801F0E07141F469
:100AC000000122F0E0720A4382601E481E4900685D
:100AD000B0FBF1F0C0EB0010C00000E0401E009041
:100AE0000028FBD144E6A9420AD12168914201D0F5
:100AF000B142F7D1816801F0E07141F0807109E005
:100B00009942EFD121689142ECD1816801F0E07106
:100B100041F48001826822F0E0720A43826027E695
:100B200000007F4000F0FF03000050FE000052C7AD
:100B3000000084CB0100008000030450000004503A
:100B4000000204504000002080841E00704770475F
:100B5000704700002DE9F0410446006806684568CA
:100B6000B0070ED5A8070CD5A06DC00603D4A06DA4
:100B700040F40060A0652046FFF763FD2168022075
:100B80000860DFF84C82934F700701D5680703D4E3
:100B900030073AD5280738D5A06DC00603D4A06D1C
:100BA00040F40070A0652168C86810F4406F26D139
:100BB000B9425CD041455AD0D7F80803C00656D098
:100BC000D7F8080300F01F00052850D0D7F80823F5
:100BD000384602F01F02092A49D0C06880040ED4AA
:100BE000086800070BD5084602F05EFAF0B3A06D66
:100BF00040F01000A065E06D40F00100E065204687
:100C0000FFF7A4FF21680C200860B00601D5A806F4
:100C100003D4700659D5680657D5A06DC00603D415
:100C2000A06D40F40050A0652068B84232D0404525
:100C300030D0D7F80813C9062CD0D7F8081301F024
:100C40001F01062926D0D7F80823394602F01F02D3
:100C5000072A1FD0C968C26C12F0C00F1ED08A01CB
:100C60002DD4C26812F4406F16D028E001E0C868A5
:100C7000B4E72068416821F00C014160A06D20F4C8
:100C80008070A065A06DC004B9D4A06D40F00100D3
:100C9000A065B4E7C168DEE78A0410D40268520692
:100CA0000DD589020BD48168C1F3C001F1B3A06DE9
:100CB00040F01000A065E06D40F00100E0652046C6
:100CC000FFF7C0FC21686020086030060BD52806BD
:100CD00009D5A06D40F48030A065204600F08AF967
:100CE000216880200860F0050CD5E8050AD5A06DC4
:100CF00040F40030A0652046FFF7A6FC21684FF4C1
:100D000080700860B0050CD5A8050AD5A06D40F428
:100D10008020A0652046FFF798FC21684FF4007002
:100D20000860F0063DD5E8063BD500E018E0A06B72
:100D300048B32068B84202D02749884220D1D7F86A
:100D40000813C9061CD0D7F80803C0F38130022865
:100D500019D0D7F80803C0F38130032813D01DE061
:100D6000416821F060014160A06D20F48050A065D1
:100D7000A06DC005A3D4A06D40F00100A0659EE762
:100D8000C068C0070AD0A06D40F48060A065E06D27
:100D900040F00200E0652046FFF7DAFE21681020EF
:100DA0000860700512D5680510D5A06D40F480402C
:100DB000A065E06D40F00800E06521684FF48060B8
:100DC00008602046BDE8F041FFF73DBCBDE8F0817A
:100DD000000204500000045000010450F8B54FF028
:100DE000000504002E46009502D0A06D10B107E06A
:100DF0000120F8BD204600F0FFF8E66584F8546055
:100E000020688168C1F3407119B18168704A11404E
:100E1000816020688168C1F3007191B981686D4A71
:100E2000114041F0805181606B486C490068B0FB13
:100E3000F1F000EB8000400000E0401E0090002830
:100E4000FBD120688168C1F3007141B9A16D41F007
:100E50001001A165E16D41F00101E1650125A16D80
:100E6000C90602D402F020F930B1A06D40F01000A4
:100E7000A06501252846F8BDA06D20F4807040F0E3
:100E80000200A0652168886800F00300012802D1F3
:100E90000868C0073FD15248814212D1D0F80811EA
:100EA00001F00301012903D1D0F80011C90732D1A3
:100EB000D0F8081201F00301012925D1D0F8000271
:100EC00020E0484A9142816801F003010DD10129D7
:100ED00002D10168C9071ED1D0F8081201F0030140
:100EE000012907D1D0F8001202E0012902D10168DE
:100EF000C90710D1D0F8081101F00301012903D16D
:100F0000D0F80001C00706D1374960688A6822F42A
:100F10007C1202438A60E168A06BE2690843A16821
:100F200041EA42310843616A40EA0140012904D1A3
:100F3000218D2E4A02EB41410843E16A29B101F4B7
:100F40007071226B014342EA01002268D168284B8C
:100F500019400143D1602068816811F00C0F12D153
:100F6000A169626B890341EA4202C16844F202034B
:100F700099431143C160E06B01280CD020680169DE
:100F800021F001010161206901282068016B21F035
:100F90000F0111D013E0D4E910010843D4E9121273
:100FA0001143084321680A6940F2FC739A431043D5
:100FB00040F001000861E6E7226A521E1143016316
:100FC000A06D20F0020040F00100A06552E7000093
:100FD000C0FFFF5FC0FFFF7F4000002080841E0035
:100FE0000000045000010450000304500000FEFF04
:100FF00007C0F0FF7047000070B5064600681D4945
:1010000086B0884233D11C48C16C41F40051C164A0
:10101000C06C002500F400500590012000900B20CA
:10102000CDE901056946154800F04EFF154C1448FE
:10103000C4E900058020A560C4E903504000606158
:101040008000A0612020C4E90705204600F012FEC0
:1010500018B17C210CA002F0F4FD34650022114689
:101060001220A66201F0AEF8122001F09FF806B03F
:1010700070BD000000000450001002400004004851
:1010800008000240340200202E2E2F5372632F736B
:10109000746D33326C3478785F68616C5F6D737037
:1010A0002E6300002DE9F04704469046894600680B
:1010B00001F0FAFF18B102263046BDE8F08794F837
:1010C000540001281CD0012084F85400334D2068BE
:1010D0000027A84202D03249884213D1D5F808032C
:1010E000C0060FD0D5F8080300F01F00052809D06E
:1010F000D5F8080300F01F00092803D0012606E0F8
:101100000220DAE72046FFF7B7F9060002D084F89C
:101110005470D1E7A06D40F60161884340F48070BF
:10112000A0652068A84206D01E49884203D0D5F8A1
:101130000803C00603D1A06D20F48010A065A06D47
:10114000C00404D5E06D20F00600E06500E0E7652E
:10115000216D1548C862216D14480863216D14483B
:10116000486321681C20086084F854702068416836
:1011700041F0100141602068C16841F00101C16087
:10118000216843464A464031206D00F0D3FD206877
:101190008168084A1140091D81608DE700000450F4
:1011A00000010450000204508503000807040008F1
:1011B000ED030008C0FFFF7F70B5044690F85400AF
:1011C000012809D0012084F8540003212046FFF7AC
:1011D00077F8050002D024E0022070BD2068C168C5
:1011E00021F00101C160206D00F0A3FC051E03D0B9
:1011F000A06D40F04000A0652068416821F010011A
:101200004160204604D1FFF703F9050003D008E050
:10121000FFF7FEF805E0A06D20F4885040F00100D3
:10122000A065002084F85400284670BD90F8202066
:10123000012A07D0022A05D0416A41F48021416287
:1012400001207047006842690A43426100207047EC
:10125000F0B590F820500468A468012D05D0022D47
:1012600003D0416A41F480215DE014F0406F01D168
:10127000E50055D5C4F30164022C03D9416A41F459
:10128000000150E00125A5401D608D684FF4C0733A
:101290009DB1CE6835434E6845EAC605066803EB46
:1012A0000417F5514FF4C275076805EB04150E6974
:1012B0007E51097D012905D009E00E88CD6845EAF7
:1012C0004655EBE701684E5946F480764E51117948
:1012D000D579567941EA056195792D0445EA0625C7
:1012E00029434FF4C676056806EB0416A951117818
:1012F000D57841EA0561957852782D0445EA0222B5
:1013000011434FF4C475026805EB04155151006890
:1013100003EB0411425842F0010242500020F0BD9C
:10132000416A41F4001141620120F0BD10B590F80E
:1013300020300268012B07D0022B05D0416A41F40E
:1013400080214162012010BDD2F8000240F001006E
:10135000C2F80002087D00F01F0301209840D2F877
:101360001C328343C2F81C32CB69B3B9D2F80C32B9
:101370008343C2F80C328C894B6864F31F434C6979
:1013800002EBC404C4F840320C890B6864F31F43B9
:101390004C6902EBC404C4F84432CB69012B16D16A
:1013A000D2F80C320343C2F80C320C884B6864F359
:1013B0001F434C6902EBC404C4F840320C89CB686B
:1013C00064F31F434C6902EBC404C4F844328B69D4
:1013D000002BD2F804320FD053EA0003C2F80432D3
:1013E0000B69002BD2F8143208D00343C2F8143230
:1013F000096A012904D008E08343EFE78343F5E756
:10140000D2F81C120143C2F81C12D2F8000220F0DC
:101410000100C2F80002002010BD704730B590F8FE
:101420002040012C05D0022C03D0416A41F48021D8
:101430005DE00468002955D02469A40754D04FF416
:10144000D874056804EB01142D5915F00405956056
:1014500005682D594ED0ED08556005682C59C4F328
:101460004004D4604FF4DA74056804EB01142D597C
:1014700005F00F05156105682D59C5F30725956120
:1014800005682C59240C54614FF4DC72046802EB9B
:101490000112A4581C700468A458240A5C700468E3
:1014A000A458240C9C700468A258120EDA704FF4F1
:1014B000DE72046802EB0112A4581C710468A4587F
:1014C000240A5C710468A458240C9C710468A25816
:1014D000120EDA71006881B1016941F020010161E9
:1014E000002030BDE468A8E7416A41F40011416280
:1014F000012030BD6D0D1560AFE7C16841F02001DE
:10150000C160EDE72DE9F05F0546006800244669FB
:10151000D0F804908768D0F80CB0D0F810A0D0F8BC
:101520001880F10748D0F90714D001218160B8076D
:1015300003D5284600F07EFA0CE0780702D54FF478
:10154000006407E0380702D54FF4805402E02846D3
:1015500000F06EFAF80516D529684FF4807088609F
:10156000B80503D5284600F0E0FA0CE0780502D56E
:1015700044F4005407E0380502D544F4804402E006
:10158000284600F0D1FAF80316D529684FF48030C8
:101590008860B80303D5284600F0C9FA0CE0780348
:1015A00002D544F4004407E0380302D544F4803403
:1015B00002E0284600F0BAFA300707D55FEACB60B0
:1015C00004D52968102044F40074C86070074FF0F7
:1015D000080707D55FEA0B7004D52868C76028465E
:1015E00000F052F9B00706D52868C068800702D01D
:1015F000284600F04BF9700607D55FEACA6004D5AB
:101600002968102044F480640861B00607D55FEAB9
:101610000A7004D528680761284600F0D9F9F00659
:1016200006D528680069800702D0284600F0D1F965
:10163000B00308D55FEAC96005D529681020486065
:10164000284600F0C7F9F00307D55FEA097004D512
:1016500028684760284600F06BFA300446D55FEAF8
:10166000497040D5F00504D55FEAC87001D044F058
:101670000104B00504D55FEA887001D544F0020486
:10168000700504D55FEA487001D544F004043005C4
:1016900029D518F0700F26D008F07000402815D01A
:1016A00006DC102809D020280AD0302816D10AE0FC
:1016B00050280ED0602811D10EE044F008040DE04F
:1016C00044F010040AE044F0200407E044F0400431
:1016D00004E044F0800401E044F4807428688169E7
:1016E00021F070018161296804204860002C05D038
:1016F000686A204368622846FFF78FFE00F000B852
:1017000030BCBDE8C09F70B5040003D094F8200041
:1017100010B104E0012070BD204600F081F820687F
:10172000016821F00201016000F0C2FC05460526B7
:1017300004E000F0BDFC401B0A2811D82068406876
:101740008007F6D42068016841F00101016000F0D3
:10175000AFFC05460BE000F0ABFC401B0A2806D9A5
:10176000606A40F40030606284F82060D2E720684C
:101770004068C007EFD0207E0128206801683DD076
:1017800021F080010160607E01282068016838D066
:1017900021F040010160A07E01282068016833D05B
:1017A00021F020010160E07E0128206801682ED030
:1017B00041F010010160207F01282068016829D0D4
:1017C00021F008010160607F01282068016824D0B1
:1017D00021F004010160D4E902010843D4E90412B4
:1017E000114308436168491E08432168C86100200D
:1017F0006062012084F82000002070BD41F080016B
:10180000C0E741F04001C5E741F02001CAE721F0FF
:101810001001CFE741F00801D4E741F00401D9E716
:1018200000B50068164987B0884227D11548816DF8
:1018300041F000718165806D694600F0007005908F
:101840004FF4C0500090022001900020029003202D
:10185000039009200490C00600F036FB002201210D
:10186000132000F0AFFC132000F0A0FC00220121A7
:10187000142000F0A7FC142000F098FC07B000BD75
:101880000064004000100240704700002DE9F04164
:101890004C4A4B4B0021A2F59870FFF7BFFD494C15
:1018A000494D4FF480762068102809D1012240214B
:1018B000284600F0F7FB01223146284600F0F2FBF3
:1018C0002068112809D100224021284600F0EAFBB7
:1018D00000223146284600F0E5FB2068012809D1A6
:1018E00001224021284600F0DDFB01223146284636
:1018F00000F0D8FB2068022809D1002240212846A8
:1019000000F0D0FB00223146284600F0CBFB2068D7
:10191000032804D101224021284600F0C3FB20689F
:10192000042804D100224021284600F0BBFB206897
:10193000052804D101223146284600F0B3FB206877
:10194000062804D100223146284600F0ABFB20686F
:101950004FF4A07818B94146284600F09FFB206854
:101960001A4F50280DD101224146284600F09AFB1B
:1019700000223146384600F095FB11490120143908
:1019800008702068B04209D100224146284600F084
:1019900089FB01223146384600F084FB206851283B
:1019A0000BD101224146284600F07CFB31463846E7
:1019B000BDE8F041002200F075BBBDE8F0810000F9
:1019C00014000020E4010020000800480004004842
:1019D000704770477047000070B5044690F82000CB
:1019E000012804D0606A40F40020606218E0022000
:1019F00084F820002068016821F00101016000F0F6
:101A000057FB05460EE000BF00F052FB401B0A28C2
:101A100008D9606A40F400306062052084F8200034
:101A2000012070BD20684068C007EDD1606270BDC4
:101A3000704700002DE9F041374C384D4FF4807667
:101A40002068102809D101224021284600F02AFBF5
:101A500001223146284600F025FB2068112809D1D3
:101A600000224021284600F01DFB00223146284676
:101A700000F018FB2068032804D1012240212846E9
:101A800000F010FB2068042804D1002240212846E1
:101A900000F008FB2068052804D1012231462846C1
:101AA00000F000FB2068062804D1002231462846B9
:101AB00000F0F8FA2068DFF868804FF4A07750282B
:101AC00009D101223946284600F0ECFA00223146BD
:101AD000404600F0E7FA2068B04209D100223946BA
:101AE000284600F0DFFA01223146404600F0DAFADB
:101AF0002068A0F5806176390CD10122394628464C
:101B000000F0D0FA00223146404600F0CBFA0549F9
:101B100002200870BDE8F081CC01002000080048D8
:101B2000000400480000002070477047704770476D
:101B30007047C8B101680A6822F00E020A600168A5
:101B40000A6822F001020A6090F84410036C01F068
:101B50001C02012101FA02F25A6080F825100021CE
:101B600080F82410084670470120704710B590F89F
:101B700025100024022903D00421C16301241AE0A6
:101B800001680A6822F00E020A6001680A6822F001
:101B900001020A6090F84410036C01F01C0201215C
:101BA00001FA02F25A6080F82510002180F8241012
:101BB000816B01B18847204610BDF0B4016C0C6800
:101BC00001680D6890F8442002F01C06042202FA15
:101BD00006F3234211D06B070FD50B689B0603D485
:101BE0000B6823F004030B6090F8441001F01C0113
:101BF0008A40016C4A60016B1DE0022303FA06F77C
:101C000027424FF0000C4FF0010218D0AF0716D555
:101C10000C68A40605D40C6824F00A040C6080F853
:101C2000252090F8441001F01C018B40016C4B60A2
:101C300080F824C0C16A00291AD0F0BC08470823E4
:101C4000B340234214D02B0712D50B6823F00E03A8
:101C50000B6090F84410036C01F01C0102FA01F1D2
:101C60005960C26380F8252080F824C0416BE2E708
:101C7000F0BC704770B568B12B4C036814212B4A37
:101C8000A34209D22A4C1C44B4FBF1F18900C0E9FB
:101C900010210BE0012070BD234C64421C44B4FBB6
:101CA000F1F189004164204908390164022180F87A
:101CB00025101C6847F6F0718C43D0E902152943C2
:101CC000D0E904563543294385692943C569294329
:101CD000056A2943214319608168B1F5804F19D005
:101CE000036C0F21934202D152F8A83F02E00E4A42
:101CF000A032136890F8444004F01C04A1408B43C8
:101D0000136090F84430416803F01C039940136855
:101D1000194311600021C163012280F8252080F859
:101D20002410084670BD0000080402400000024074
:101D3000F8FFFDBF70B5044690F824000025012887
:101D40000CD0012084F8240094F825600020012E96
:101D500006D084F824000225284670BD022070BDFC
:101D6000022684F82560E0632068066826F00106F4
:101D700006602046FEF706FC206B002820680168FC
:101D800002D041F00E0106E021F00401016020685C
:101D9000016841F00A0101602068016841F0010119
:101DA0000160D9E770B5044600F082F90546601C71
:101DB00000D0641C00F07CF9401BA042FAD370BD37
:101DC0007047000070B53D4D68696FF30A006861A7
:101DD000686920F400406861394C207A042803D1F6
:101DE000686920F48020686129694CF2FA3001406A
:101DF000A8694FF0000600F08040084322D06168D7
:101E000001436160810F04D0A96900F04042114391
:101E1000A961810002D020F040402861FEF7CAFB92
:101E2000207A012806D0022806D0032806D00428EC
:101E300004D006E0606902E0206900E0E06800F09C
:101E400041F826722869C043C0072ED101202861BD
:101E5000207A012809D0FEF7ADFB207A02281ED097
:101E600003281ED004281CD01EE0A069401EA061DB
:101E7000A06950B16069FFF7A3FF6069401C606111
:101E800060692169FEF7C2FB0FE04FF0FF3060612F
:101E90002672FEF78FFB6069FFF792FF05E020696D
:101EA00000E0E068FFF78CFF2672207A002804D15A
:101EB000686920F040706861267070BD00200240A3
:101EC00020000020704700002DE9F84FDFF898B19E
:101ED00000234FF0010C4FF0030A4FF00F090BF1F4
:101EE000040EB9E00CFA03F4224070D04D68022DC4
:101EF00001D0122D0ED1DD0800EB8508D8F8205056
:101F00005E07F70E09FA07F6B5430E69BE402E4389
:101F1000C8F8206007685E0091F804800AFA06F5A8
:101F200008F00308AF4308FA06F848EA0708C0F8C3
:101F300000804F68012F05D0022F03D0112F01D050
:101F4000122F13D1D0F80880CF6828EA0508B740CF
:101F500047EA08078760D0F804800F7928EA040868
:101F6000C7F300179F4047EA08074760D1F804808D
:101F70006FEA0807BF0706D1C76AA743C8F3C004C2
:101F80009C403C43C462C468AC438D68B540254363
:101F9000C5604C68E4005ED5344C256E45F0010503
:101FA0002566246E23F0030504F001040094304CF0
:101FB0002E19B4689D072F0F09FA07F5AC43B0F14D
:101FC000904F05D02B4DA84204D101251CE042E0E2
:101FD000002519E0284DA84201D1022514E0274D23
:101FE000A84201D103250FE0254DA84201D10425C7
:101FF0000AE0244DA84201D1052505E0224DA84262
:1020000001D1062500E00725BD402543B560DBF87A
:1020100000405D464E689443F60300D514432C609F
:10202000DEF8004075464E689443B60300D514436D
:102030002C600D4D08352C684E689443F60200D58F
:1020400014432C60084D0C352C684E689443B6023E
:1020500000D514432C605B1C0A6832FA03F57FF448
:1020600041AF00F013B8000000040140001002402E
:10207000000001400004004800080048000C00482F
:1020800000100048001400480018004818BCBDE8C3
:10209000E08F0069084000D00120704742694A4043
:1020A000426170470AB181617047816270470000E8
:1020B00001480068704700001C00002002480168C9
:1020C000491C0160704700001C00002010B503206F
:1020D00000F098F8002000F005F800F017F8002054
:1020E00010BD000010B5044607484FF47A7100682F
:1020F000B0FBF1F000F0FFFD00222146501E00F081
:1021000061F8002010BD000040000020264808B5FE
:10211000016E41F001010166016E01F001010091C3
:10212000816D41F080518165806D00F0805000909C
:10213000032000F067F8002211466FF00B0000F05A
:1021400041F8002211466FF00A0000F03BF800222F
:1021500011466FF0090000F035F800221146501FBB
:1021600000F030F800221146101F00F02BF800227A
:102170001146901E00F026F800221146501E00F075
:1021800021F800221146042000F01CF8042000F081
:102190000DF800221146512000F014F8BDE8084067
:1021A000512000F003B800000010024000F01F02B0
:1021B000012191404009800000F1E020C0F80011A9
:1021C00070470000F0B40E4B1B680C46C3F30223AB
:1021D000C3F10705042D00D90425191D072901D2D3
:1021E000002300E0DB1E012606FA05F1491E21400E
:1021F00099409E40761E16403143F0BC01F086B8EF
:102200000CED00E0064900F0070208684FF6FF03F6
:10221000184040EA0220034A10430860704700005B
:102220000CED00E00000FA051549B0F5007F0868E4
:10223000C0F3412009D0022805D0086820F4C0600E
:1022400040F480600860002070470128FBD00868D7
:1022500020F4C06040F4007008600A480A4A006830
:10226000B0FBF2F03222504300E0401E10B14A6948
:102270005205FAD448694005E5D5032070470000AF
:10228000007000404000002040420F0002480068FB
:1022900000F4C06070470000007000402DE9F84F66
:1022A000044600270088E54D3E46010504F1200B59
:1022B0001DD5606E78B1B0F5800F11D0B0F5000F6C
:1022C00004D0B0F5400F22D001270FE0E86840F4B9
:1022D0008030E8601BE00021201D01F09DF803E044
:1022E0000021584601F02EF9070010D03E46208804
:1022F000C00426D5A06EC0B1B0F1807F1AD0B0F175
:10230000007F0DD0B0F1407F19D0012718E0D5F83B
:102310008800616E20F440000843C5F88800E6E7B5
:10232000E86840F48030E86009E00021201D01F0F9
:1023300073F803E00021584601F004F90746F7B1AD
:102340003E46206880033AD5A86D4FF00008C000D3
:1023500009D4A86D40F08050A865A86D4FF0010821
:1023600000F080500090DFF8D8A2DAF8001041F4B5
:102370008071CAF80010FFF79BFE814610E0D5F887
:102380008800A16E20F040700843C5F88800D8E7A7
:10239000FFF78EFEA0EB0900022801D9032705E014
:1023A000DAF80000C005F3D5002F7CD04FEA07060D
:1023B000B8F1000F03D0A86D20F08050A8652078F8
:1023C000C00707D0D5F88800A16B20F003000843B0
:1023D000C5F888002078800707D5D5F88800E16B1C
:1023E00020F00C000843C5F888002078400707D586
:1023F000D5F88800216C20F030000843C5F888002B
:102400002078000707D5D5F88800616C20F0C0005F
:102410000843C5F888002078C00607D5D5F888009D
:10242000A16C20F440700843C5F88800207880062D
:1024300007D5D5F88800E16C20F440600843C5F862
:1024400088002088800507D5D5F88800E16D20F444
:1024500040200843C5F888002088400507D5D5F8F6
:102460008800216E20F440100843C5F888002078C9
:10247000400607D5D5F88800216D20F44050084368
:10248000C5F888002078000607D5D5F88800616D6A
:1024900020F440400843C5F888002088C00509D5CD
:1024A000D5F8880000E01CE0A16D20F4403008431E
:1024B000C5F8880020884FF0006780044FF08068DE
:1024C0004FD5D5F88800E16E20F040600843C5F88C
:1024D0008800E06EB8423CD1E86840F48010E860C3
:1024E0003FE0D5F8900010F4407015D0D4F8841077
:1024F000814211D0D5F89000D5F8901020F44070AA
:1025000041F48031C5F89010D5F8901021F4803155
:10251000C5F89010C5F89000C00710D0FFF7C8FDAF
:10252000074641F2883906E0FFF7C2FDC11B494565
:1025300001D903263CE7D5F890008007F4D5D5F8FB
:102540009000D4F8841020F440700843C5F890003F
:102550002EE7404505D10121201D00F05DFF00B1AF
:1025600006462068000317D5D5F88800216F20F0B3
:1025700040600843C5F88800206FB84204D1E8687D
:1025800040F48010E86007E0404505D10121201D9E
:1025900000F042FF00B106462068400317D5D5F889
:1025A0008800616F20F040600843C5F88800606FC4
:1025B000B84204D1E86840F48010E86007E0404584
:1025C00005D10121201D00F027FF00B1064620881B
:1025D00040041AD5D5F88800A16F20F04050084378
:1025E000C5F88800A06FB0F1805F03D0B0F1005F44
:1025F00005D00AE00221201D00F00EFF03E00221B9
:10260000584600F09FFF00B106462088000407D519
:10261000D5F88800E16F20F080400843C5F88800B5
:102620002068C00307D555F8880FD4F8801020F033
:10263000004008432860304600F004B80010024013
:102640000070004018BCBDE8E08F00002DE9F047A5
:102650000F46050058D03E4E306800F00700B842E3
:1026600009D2306820F0070038433060306800F04D
:102670000700B84248D12878364CC0072CD068688B
:10268000032811D0022812D0216898B149050029E9
:102690003ADAA16821F003010143A160FFF708FDC8
:1026A000804641F2883910E021688901EFE721680E
:1026B0008903ECE78907EAE7FFF7FAFCA0EB0801DA
:1026C000494502D90320BDE8F087A068696800F099
:1026D0000C00B0EB810FEFD12878800705D5A068FA
:1026E000A96820F0F0000843A060306800F00700FF
:1026F000B8420BD9306820F00700384330603068AA
:1027000000F00700B84201D00120DCE7287840073C
:1027100005D5A068E96820F4E0600843A060287847
:10272000000706D5A068296920F4605040EAC1007E
:10273000A06000F03BF8A168074AC1F30311515CA7
:10274000C840064908600020FFF7CCFC0020BAE72B
:102750000020024000100240C83E00084000002057
:102760000148006870470000400000200448054907
:1027700000688968044AC1F30221515CC84070476F
:102780004000002000100240083F000804480549AE
:1027900000688968044AC1F3C221515CC84070478F
:1027A0004000002000100240083F000830B52D49CD
:1027B000002318468A682C4C12F00C0F4FEA64056F
:1027C00014D08A68C2F38102032A04D1CA6802F0D5
:1027D0000302012A0AD08A68C2F38102012A19D0B1
:1027E0008A68C2F38102022A16D016E00A6812072C
:1027F00004D4D1F89420C2F3032202E00A68C2F3A1
:1028000003121A4B53F822308A6812F00C0F04D1CD
:10281000184602E0204600E028468A68C2F381029A
:10282000032A1DD1C868CA6800F00300C2F302126F
:10283000521C022804D0032805D0B3FBF2F004E0B8
:10284000B4FBF2F001E0B5FBF2F0CA68C968C2F36C
:1028500006225043C1F34161491C4900B0FBF1F02D
:1028600030BD0000001002400024F400D83E0008F3
:102870002DE9F84304007DD02078FF4DC0065DD5DA
:10288000A86810F00C0F0AD0A0690028286873D03F
:1028900040F001002860FFF70BFC064655E0286871
:1028A000800702D5A0690028E5D0216A28680007C2
:1028B00003D5286800F0F00004E0D5F89400F02279
:1028C00002EA1010814216D9084600F0BFFE002827
:1028D00050D1286840F0080028602868216A20F05C
:1028E000F000084328606868E16920F47F4040EA0E
:1028F0000120686015E0286840F00800286028681A
:10290000216A20F0F000084328606868E16920F43B
:102910007F4040EA01206860206A00F097FE0028AE
:10292000D6D1FFF743FFA968D44AC1F30311515C24
:10293000C840D34908600020FFF7D4FB2CE000BF5B
:10294000FFF7B6FB801B02287ED828688007F7D5E2
:10295000286840F0080028602868216A20F0F0000C
:10296000084328606868E16920F47F4040EA01205C
:10297000686011E0B2E0FFE720F001002860FFF797
:1029800097FB064605E000BFFFF792FB801B02287D
:10299000DAD828688007F7D42078C00748D0A8681C
:1029A000C0F3810002281DD0A868C0F3810003286D
:1029B00003D1E868C043800714D06068B0F5803F59
:1029C00017D0B0F5A02F286817D020F480302860E9
:1029D000286820F4802028606068E0B1FFF768FB79
:1029E000064614E02868800322D56068002875D068
:1029F0001EE0286840F48030EDE740F48020286035
:102A0000F7E700BFFFF754FB801B64289CD82868B9
:102A10008003F7D50CE0FFF74BFB064605E000BF4F
:102A2000FFF746FB801B64288ED828688003F7D404
:102A30002078800742D5A868C0F38100012816D00D
:102A4000A868C0F3810000E0A9E0032804D1E86889
:102A500000F0030002280AD0E068002828681DD092
:102A600040F480702860FFF723FB06460BE02868DF
:102A700040050BD5E0680028B9D007E0FFF718FB48
:102A8000801B022884D828684005F7D56868217C17
:102A900020F0F85040EA016068600FE020F4807098
:102AA0002860FFF705FB064605E000BFFFF700FBC7
:102AB000801B022873D828684005F7D420780007C7
:102AC00029D560690028D5F8940013D040F00100A2
:102AD000C5F89400FFF7ECFA064606E0FBE000BFFD
:102AE000FFF7E6FA801B022859D8D5F89400800732
:102AF000F6D510E020F00100C5F89400FFF7D8FAF1
:102B0000064604E0FFF7D4FA801B022847D8D5F820
:102B100094008007F6D42078400763D5A86D00267E
:102B2000C00008D4A86D40F08050A865A86D0126AB
:102B300000F08050009053480168C90511D4016825
:102B4000804641F480710160FFF7B2FA074604E065
:102B5000FFF7AEFAC01B022821D8D8F80000C00544
:102B6000F6D5A068012815D00528D5F8900017D013
:102B700020F00100C5F89000D5F8900020F0040086
:102B8000C5F89000A06841F28838C8B1FFF790FA04
:102B9000074610E0D5F8900040F00100F0E777E03C
:102BA00040F00400C5F89000F4E700BFFFF780FA9A
:102BB000C11B41456CD8D5F890008007F6D50CE0D4
:102BC000FFF776FA074604E0FFF772FAC11B4145AA
:102BD00079D8D5F890008007F6D41EB1A86D20F002
:102BE0008050A865A06AE0B3A968C1F381010329F8
:102BF00072D00228286820F08070286011D02868E0
:102C0000000106D42868800003D4E86820F003009F
:102C1000E860E8681C490840E860FFF749FA0446A4
:102C200054E0FFF745FA064605E000BFFFF740FA1B
:102C3000801B022847D828688001F7D4206BE16AFE
:102C4000000110380843616BA26B0902120941EAC6
:102C500042410843A18F0D4A490802EB4151084304
:102C600000E036E094F840104908120102EB41619F
:102C70000843E86028680CE000100240C83E0008E5
:102C80004000002000700040FFFFEEFE0000E0FF6B
:102C900019E040F080702860E86840F08070E860DB
:102CA000FFF706FA044604E0FFF702FA001B0228C9
:102CB00009D828688001F7D50BE000BFFFF7F8F9C5
:102CC000001B022802D90320BDE8F8832868800190
:102CD000F4D40020F8E7FFE70120F5E74FF0E0210A
:102CE0000428086903D020F004000861704740F010
:102CF0000400FAE7704710B5401EB0F1807F01D3A1
:102D0000012010BD4FF0E02460610F21601700F03A
:102D1000FDFA0020A06107202061002010BD10B541
:102D2000FFF7E8FF10BD7047704700002DE9F04144
:102D300002680446D0691168936810F00F0F4FF0D5
:102D400000055BD003F0010601F49077374369D0AA
:102D5000C70707D0CF0505D501271762626F42F07C
:102D600001026267820708D5DA0706D027680222C7
:102D70003A62626F42F004026267420708D5DA07DE
:102D800006D0236804221A62626F42F00202626770
:102D900002070AD501F02002324306D02368082238
:102DA0001A62626F42F008026267626F002A32D0D4
:102DB000800605D5880603D5216E09B120468847CF
:102DC000606F000703D420688068400625D5204640
:102DD00000F098FD20688168490619D5816821F0C6
:102DE00040018160E06E98B120498163E06EFEF79A
:102DF000BDFE00280FD0E06E816B06E0860611D57F
:102E00008E060FD5216E1EE02046BDE8F041084732
:102E10002046FFF789FFBDE8F0812046FFF784FFD9
:102E20006567F8E7C60209D55B0207D54FF4801045
:102E300010622046BDE8F041FFF775BF030605D5D7
:102E40000B0603D5616E0029DED1E4E74006E2D52A
:102E50004806E0D51168204621F04001116020218C
:102E600084F87110656600F0DDF8D4E7F1380008E9
:102E700010B5040003D094F8710010B107E00120F0
:102E800010BD002084F87000204600F027F82420B0
:102E900084F871002068016821F00101016020467A
:102EA00000F040FD0128EBD0606A10B1204600F030
:102EB0008DFC2068416821F4904141602068816860
:102EC00021F02A0181602068016841F00101016060
:102ED0002046BDE8104000F0DDBC000070B5214E7A
:102EE00005680021204802220323072486B0B5424A
:102EF00019D1856D45F400358565806D02AD00F40E
:102F00000030059085E81A000C20CDE900026946E2
:102F10004FF09040FEF7D8FF002202212620FFF755
:102F200051F926201AE0114EB54219D1856D45F4AC
:102F300080258565806D02AD00F48020059085E8D0
:102F40001A003020CDE9000269460948FEF7BCFFAF
:102F5000002202212720FFF735F92720FFF726F965
:102F600006B070BD00440040001002400048004020
:102F7000000800482DE9F843044690F871001F4608
:102F800016460D4620284BD1C5B1BEB194F870004D
:102F9000012845D0012084F870004FF00008C4F8E3
:102FA0007480212084F87100FFF782F8A4F8506043
:102FB0008146A4F852604FF4805615E00120BDE828
:102FC000F8838021204600F0FDFDD8B9A068B0420A
:102FD00001D12069C0B115F8010B21680885B4F84A
:102FE0005200401EA4F85200B4F852004B464FF075
:102FF000000200970028E4D14FF04001204600F085
:10300000E1FD30B10320DAE735F8020BC0F3080028
:10301000E3E7202084F8710084F870800020CEE778
:103020000220CCE77047FEE770B51A4886B0C16C45
:1030300041F00401C164C06C174E00F004004FF46D
:10304000E0540590002221463046FFF72BF8012579
:10305000CDE9004500240294694630460394FEF70A
:1030600033FF0F208DE8310069463046FEF72CFF14
:10307000012291023046FFF715F80122D1023046B5
:10308000FFF710F8012211033046FFF70BF806B0E6
:1030900070BD0000001002400008004800EB8100F5
:1030A000006E00F0F84070478068C0F38000704701
:1030B0008068C0F38000704770B54FF0007401F075
:1030C000007394FAA4F4B4FA84F4E3404FF0F87473
:1030D00094FAA4F501F0F871B5FA85F500EB8300D8
:1030E00021FA05F50726AE4094FAA4F44369B4FA30
:1030F00084F4E140B3438A401343436170BD00EB65
:103100008100016E21F0004111430166704700000B
:1031100030B51B4889B0194901604FF400210024E3
:10312000C0E901140425C460C0E90445012184619B
:10313000C0E90741C0E90941C46204634463846390
:10314000C463FDF74BFE00B1FEE706A90C480694E8
:10315000FDF77CFA00B1FEE70A4800900620CDE9B1
:1031600001047F200594CDE9030569460448FDF775
:10317000E5FA002800D0FEE709B030BD0000045099
:103180004C0000200080F03E0E4810B50C49016054
:103190000A21416000214FF440228160C0E90312FE
:1031A0004FF480124261017641768176C1760177D3
:1031B0004177FEF7A8FA002800D0FEE710BD000016
:1031C00000640040B40000202DE9F04F2D4887B086
:1031D000C16C41F00401C164C16C01F004010591AE
:1031E000C16C41F00101C164C16C01F001010591A4
:1031F000C16C41F00201C164C06C4FF0904900F015
:1032000002000590002220214846FEF74BFFDFF820
:1032100078A04FF4A077002239465046FEF742FFCF
:10322000DFF868B04FF48078012241465846FEF737
:1032300039FF4FF40050002401258DE83100694624
:103240005046FEF741FE20200326CDE90005CDE9DA
:10325000024669464846FEF737FE00970396CDE9D9
:10326000015469465046FEF72FFECDF800800396C4
:10327000CDE9015469465846FEF726FE07B000F036
:1032800007B8000000100240000800480004004891
:1032900030BCBDE8C08F00000C4810B50A49016081
:1032A0004FF4E1314160002181600C22C160C0E92E
:1032B00004128161C16101624162FFF7D9FD0028FA
:1032C00000D0FEE710BD000000440040DC000020FC
:1032D0000C4810B50A4901604FF4165141600021B5
:1032E00081600C22C160C0E904128161C161016288
:1032F0004162FFF7BDFD002800D0FEE710BD0000D1
:103300000048004054010020FEE770470907090EFD
:10331000002806DA00F00F0000F1E02080F8141D0C
:10332000704700F1E02080F80014704770470000FB
:1033300070B5384D00244FF4806622463146284649
:10334000FEF7B0FE01212846FEF7A3FE00B90124D6
:1033500002212846FEF79DFE00B9042404212846D8
:10336000FEF797FE00B9072408212846FEF791FED4
:1033700000B91024012231462846FEF793FE4FF48F
:103380000066002231462846FEF78CFE01212846C1
:10339000FEF77FFE00B9022402212846FEF779FEDF
:1033A00000B9052404212846FEF773FE00B908245D
:1033B00008212846FEF76DFE08B94FF480740122FB
:1033C00031462846FEF76EFE4FF480560022314605
:1033D0002846FEF767FE01212846FEF75AFE00B98F
:1033E000032402212846FEF754FE00B906240421D6
:1033F0002846FEF74EFE00B9092408212846FEF7AC
:1034000048FE00B91124012231462846FEF74AFE43
:10341000204670BD000800482DE9F041444C0546A7
:103420008846E0680026810728680DD0E16801F031
:103430000301814216D1A8B1E0686968C0F30210A7
:10344000401C88420ED120E0012804D0022805D07B
:10345000032807D108E02168890701E021684905B0
:10346000002907DB01265FE02168890302D4216877
:103470004903F5E7E1686A686FF00F0321F0730113
:1034800003EB021211430143E160206820F08060E9
:103490002060FEF70DFE074605E000BFFEF708FEC0
:1034A000C01B022837D820680001F7D4B8F1000FFC
:1034B00018D0B8F1010F1ED0287D4FF07E41400892
:1034C00001EB4060A96840EA01202169194A1140D6
:1034D00008432061206840F080602060FEF7E8FD2E
:1034E00007461AE0A868E9680002090940EA414075
:1034F0002169114AEBE7288A1049400801EB405046
:10350000A96840EA012021690D4AE0E7FEF7D0FDF5
:10351000C01B022801D9032606E020680001F5D56A
:103520002069A969084320613046BDE8F0810000A8
:1035300000100240FF80FFF9FF80FDFF0000E0FF68
:10354000FF809FFF2DE9F0413D4C06468846E0682C
:103550000025810730680DD0E16801F00301814248
:1035600016D1A8B1E0687168C0F30210401C88420F
:103570000ED120E0012804D0022805D0032807D16D
:1035800008E02168890701E021684905002907DB77
:10359000012551E02168890302D421684903F5E738
:1035A000E16872686FF00F0321F0730103EB021200
:1035B00011430143E160206820F080502060FEF755
:1035C00077FD074605E000BFFEF772FDC01B02282D
:1035D00029D820688000F7D4B8F1000F15D0307CCE
:1035E0004FF07E41400801EB4060B16840EA0120A5
:1035F0006169144A114008436061206840F08050BE
:103600002060FEF755FD07460FE0B068F168000244
:10361000090940EA414061690B4AEBE7FEF748FDC2
:10362000C01B022801D9032506E020688000F5D5DB
:1036300060697169084360612846BDE8F081000057
:1036400000100240FF80FFF9FF80FDFFF8B51C4D20
:1036500006460024A86DC00002D5FEF717FE0DE057
:10366000A86D40F08050A865A86D00F080500090D3
:10367000FEF70CFEA96D21F08051A965B0F5007F21
:1036800004D0802E07D94FF003040AE0802E08D919
:10369000A02E01D804E001D1022402E0702E00D156
:1036A00001240848016821F00701214301600068F6
:1036B00000F00700A04201D00120F8BD0020F8BDB5
:1036C0000010024000200240704710B5FEF7F6FCE3
:1036D000BDE81040FFF723BB2DE9F041B8B001254C
:1036E0000024CDE928544FF010080226CDF8888038
:1036F0006020CDE92C652A9012200727CDE92E50B5
:10370000CDE93076329622A8FFF7B2F800B1FEE795
:103710000F2033900320CDE934043694022133A8DE
:103720003794FEF793FF00B1FEE744F206000F94D2
:1037300000904FF080501E90109401950011CDE93B
:103740000660CDE90476CDE902586846FEF7A6FD8D
:1037500000B1FEE74FF40070FEF766FD00B1FEE732
:10376000FEF7FEFF4FF47A71B0FBF1F0FFF7C3FAFA
:103770000420FFF7B3FA00221146501EFEF722FD87
:1037800038B0BDE8F08100000D48016841F47001D7
:1037900001600C48016841F0010101600021816075
:1037A0000268094B1A4002608214C260026822F467
:1037B0008022026081610249C0038039086070473D
:1037C00088ED00E000100240FFFFF6EA90F82410B8
:1037D000C90706D001684A68836A22F400321A4396
:1037E0004A6090F82410890706D501684A68C36AC0
:1037F00022F480321A434A6090F82410490706D513
:1038000001684A68036B22F480221A434A6090F8E8
:103810002410090706D501684A68436B22F4004268
:103820001A434A6090F82410C90606D501688A68D0
:10383000836B22F480521A438A6090F82410890620
:1038400006D501688A68C36B22F400521A438A6065
:1038500090F82410490611D501684A68036C22F4D7
:1038600080121A434A60016CB1F5801F06D10168CD
:103870004A68436C22F4C0021A434A6090F824104C
:10388000090606D501684A68806C22F400220243CA
:103890004A607047F8B5002604464667FEF708FC04
:1038A0000546206800686FF07E47000708D52B4664
:1038B00000224FF400112046009700F083F960B910
:1038C0002068006840070AD52B4600224FF480018B
:1038D0002046009700F076F908B10320F8BD2020BB
:1038E00084F8710084F8720084F870600020F8BDDC
:1038F00010B5806A0021A0F85A10A0F85210FFF706
:1039000013FA10BD01680A6822F490720A60016817
:103910008A6822F001028A60202180F8721000215A
:10392000016670472DE9F04104460168806823690B
:10393000E669184363691025002733431843954A05
:103940000B68954E334003430B6020684168E36881
:1039500021F44051194341602168A069914201D08E
:10396000236A18438B6823F4306303438B608B4BCB
:1039700021688B4899420DD1D0F8880010F00300DF
:1039800006D001285AD0022856D0032859D157E032
:10399000012556E0834B99420BD1D0F8880010F0F6
:1039A0000C0047D0042849D0082845D00C2848D11D
:1039B00046E07D4B99420BD1D0F8880010F03000E2
:1039C00038D010283AD0202836D0302839D137E0E6
:1039D000764B99420BD1D0F8880010F0C00029D066
:1039E00040282BD0802827D0C0282AD128E0704B2F
:1039F00099420ED1D0F8880010F440701AD0B0F57A
:103A0000807F1BD0B0F5007F16D0B0F5407F18D175
:103A100016E0914215D1D0F8880010F4406009D02A
:103A2000B0F5806F0AD0B0F5006F05D0B0F5406FEB
:103A300007D105E0002504E0022502E0042500E0AE
:103A400008255C4B00264FF4004091423DD135B132
:103A5000022D07D0042D07D0082D10D107E0FEF766
:103A600085FE03E0184602E0FEF7A0FEA8B36268F8
:103A700002EB4201814202D8B0EB023F01D901279B
:103A800075E0DFF834815DB1022D0CD0042D13D028
:103A9000082DF4D150082905401846F1000105E031
:103AA000FEF764FE0AE050084449F5E70023FCF7FE
:103AB00089FBA0F5407156E0FEF778FE6268010EC2
:103AC0000302500818187141F0E7E1694FF6EF78EA
:103AD00081422FD1092DD2D200E048E0DFE805F085
:103AE00006092005230505052600C8E7FEF73EFE6A
:103AF00001E0FEF74BFE4100D4F8040001EB500159
:103B0000B1FBF0F080B2A0F110014145B7D84FF6FB
:103B1000F0710140C0F3420001432068C16026E01B
:103B200027496068EAE7FEF741FEE4E74FF4803199
:103B30006068E3E7092DA2D2DFE805F006091E055B
:103B40002205050525009AE7FEF710FE01E0FEF7C5
:103B50001DFE0146606801EB500100BFB1FBF0F0B3
:103B600080B2A0F11001414589D82168C86026665D
:103B700038466666BDE8F081606803EB5001EDE70A
:103B8000FEF714FEE5E7616800EB5100B0FBF1F0D1
:103B9000E6E7000000800040F369FFEF00380140D5
:103BA000001002400044004000480040004C00402B
:103BB000005000400024F400FFFC0F00000024F43B
:103BC0000048E8012DE9F041984617460E460446A4
:103BD000069D1DE0681C1BD02DB1FEF769FAA0EB15
:103BE0000800A84214D92068016821F4D07101604E
:103BF0002068816821F001018160202084F8710033
:103C000084F87200002084F870000320BDE8F08181
:103C10002068C06936EA000004D00020B842D9D03C
:103C20000020F3E70120F9E70148FFF77FB8000023
:103C3000DC0000200148FFF779B8000054010020A3
:103C4000FEE7FEE7014A024900F025B8C53C00083E
:103C5000440000200FB4084610B5064A02A900F03F
:103C60001AF8044602A9002000F026F8204610BCED
:103C70005DF814FBB93C000802E008C8121F08C137
:103C8000002AFAD170477047002001E001C1121FDD
:103C9000002AFBD170472DE9F04116460F46044635
:103CA000002503E03946B047641C6D1C20780028CD
:103CB000F8D12846BDE8F0810A68531C0B601070EB
:103CC0007047000013B56423012269460248FFF7DC
:103CD00051F900981CBD0000540100208AB0FEF785
:103CE000F5F9FFF7F9FCFFF79FF9FFF76DFA544874
:103CF000816C41F001018164806C002200F00100C0
:103D0000009011460B20FEF75DFA0B20FEF74EFAED
:103D1000FFF73AFAFFF7FCF9FFF7BEFAFFF7D8FA18
:103D200000240120CDE9064003940494CDE9080461
:103D3000059400940194029469464248FDF7F6FA0E
:103D400000B1FEE73F48FDF747FE00B1FEE7032163
:103D50003C48FDF76BFA00B1FEE73A48FDF73CFE40
:103D600002213848FDF762FA374F4FF496684FF456
:103D70007A76BD1E3348012233496838FDF792F93F
:103D80000A20FEF70FF82F486838FDF715FA388833
:103D9000404503D940F27640FCF7C8FBFFF7C8FA6C
:103DA000B8B1FCF7C3FB642011E028A0FFF74AFF7D
:103DB000C820FDF7F7FF2BA0FFF744FF31491A2079
:103DC00000F080F826A0FFF73DFF2C703046FDF78D
:103DD000E9FF28780128E8D01EE01CA0FFF732FF99
:103DE000C820FDF7DFFF28A0FFF72CFF25491A2088
:103DF00000F068F81AA0FFF725FF2C703046FDF799
:103E0000D1FF29A12D48FFF725FF2C496423322239
:103E1000A1F1AC00FFF7AEF828780228DDD04FF40E
:103E200000512748FEF735F90028A3D1C820FDF737
:103E3000B9FF20214FF09040FEF730F99AE70000DB
:103E400000100240B40000200200002041542B4327
:103E50004D47533D22303332353535313030352200
:103E60000D0A000050686174206869656E206B68F7
:103E7000692047415320746169206E75636C656FDA
:103E8000343436004400002050686174206869654D
:103E90006E206B68692047415320746169206E75FC
:103EA000636C656F343736004154443033323535F6
:103EB00035313030353B0D0A000000000002002093
:103EC00000080048FFF7FEBE0000000000000000F0
:103ED0000102030406070809A0860100400D030043
:103EE000801A060000350C0040420F0080841E003E
:103EF00000093D0000127A000024F40000366E0133
:103F00000048E801006CDC0200000000010203042C
:103F1000303F0008000000204C000000783C000802
:103F20007C3F00084C00002034060000883C00085C
:103F30000000000000000000000000000000000081
:103F40000000000000000000000000000000000071
:103F50000000000000000000000000000000000061
:103F60000100000000000000000000000000000050
:0C3F700000093D000000000000000000FF
:040000050800018965
:00000001FF
