:020000040800F2
:1000000080040020050100089B110008BD100008B5
:100010009911000871010008011200080000000099
:100020000000000000000000000000009F11000818
:1000300073010008000000009D110008A1110008D4
:100040001F0100081F0100081F0100081F01000810
:100050001F0100081F0100081F0100081F01000800
:100060001F0100081F0100081F0100081F010008F0
:100070001F0100081F0100081F0100081F010008E0
:100080001F0100081F0100081F0100081F010008D0
:10009000F51100081F0100081F0100081F010008DA
:1000A0001F0100081F0100081F0100081F010008B0
:1000B0001F0100081F010008000000001F010008C8
:1000C0001F01000800000000000000001F010008E0
:1000D000000000001F0100081F01000800000000D0
:1000E0001F0100081F0100081F010008DFF810D0E1
:1000F00000F02CF80048004741120008AFF30080E0
:10010000800400200648804706480047FEE7FEE7D7
:10011000FEE7FEE7FEE7FEE7FEE7FEE7FEE7FEE7B7
:10012000F3110008ED000008D2B201E000F8012B45
:10013000491EFBD270470022F6E710B513460A4667
:1001400004461946FFF7F0FF204610BD064C074D48
:1001500006E0E06840F0010394E807009847103497
:10016000AC42F6D3FFF7C6FFA4120008C412000881
:10017000FEE7704790F82020012A07D0022A05D018
:10018000416A41F480214162012070470068426960
:100190000A4342610020704710B590F82030026891
:1001A000012B07D0022B05D0416A41F48021416226
:1001B000012010BDD2F8000240F00100C2F8000298
:1001C000087D00F01F0301209840D2F81C328343C1
:1001D000C2F81C32CB69B3B9D2F80C328343C2F8EF
:1001E0000C328C894B6864F31F434C6902EBC404E6
:1001F000C4F840320C890B6864F31F434C6902EB6E
:10020000C404C4F84432CB69012B16D1D2F80C32A5
:100210000343C2F80C320C884B6864F31F434C69EB
:1002200002EBC404C4F840320C89CB6864F31F436A
:100230004C6902EBC404C4F844328B69002BD2F839
:1002400004320FD053EA0003C2F804320B69002BCA
:10025000D2F8143208D00343C2F81432096A0129D3
:1002600004D008E08343EFE78343F5E7D2F81C129C
:100270000143C2F81C12D2F8000220F00100C2F8BB
:100280000002002010BD704730B590F82040012CCE
:1002900005D0022C03D0416A41F480215DE004685E
:1002A000002955D02469A40754D04FF4D8740568A8
:1002B00004EB01142D5915F00405956005682D59BE
:1002C0004ED0ED08556005682C5904F00204D46046
:1002D0004FF4DA74056804EB01142D5905F00F058D
:1002E000156105682D59C5F30725956105682C59D9
:1002F000240C54614FF4DC72046802EB0112A45820
:100300001C700468A458240A5C700468A458240C67
:100310009C700468A258120EDA704FF4DE72046802
:1003200002EB0112A4581C710468A458240A5C71E1
:100330000468A458240C9C710468A258120EDA7147
:10034000006881B1016941F020010161002030BDE8
:10035000E468A8E7416A41F400114162012030BD20
:100360006D0D1560AFE7C16841F02001C160EDE798
:100370002DE9F05F0546006800244669D0F8049036
:100380008768D0F80CB0D0F810A0D0F81880F1072A
:1003900048D0F90714D001218160B80703D5284659
:1003A00000F07CFA0CE0780702D54FF4006407E017
:1003B000380702D54FF4805402E0284600F06CFA6A
:1003C000F80516D529684FF480708860B80503D504
:1003D000284600F072FA0CE0780502D544F4005487
:1003E00007E0380502D544F4804402E0284600F0D6
:1003F00063FAF80316D529684FF480308860B80393
:1004000003D5284600F05BFA0CE0780302D544F4EB
:10041000004407E0380302D544F4803402E0284663
:1004200000F04CFA300707D55FEACB6004D52968A5
:10043000102044F40074C86070074FF0080707D517
:100440005FEA0B7004D52868C760284600F05AF9A7
:10045000B00706D52868C068800702D0284600F09B
:1004600053F9700607D55FEACA6004D529681020E1
:1004700044F480640861B00607D55FEA0A7004D5C9
:1004800028680761284600F0D7F9F00606D52868E5
:100490000069800702D0284600F0CFF9B00308D5E4
:1004A0005FEAC96005D5296810204860284600F039
:1004B000C5F9F00307D55FEA097004D528684760DD
:1004C000284600F0FDF9300446D55FEA497040D572
:1004D000F00504D55FEAC87001D044F00104B0050E
:1004E00004D55FEA887001D544F00204700504D594
:1004F0005FEA487001D544F00404300529D518F0AE
:10050000700F26D008F07000402815D006DC1028A7
:1005100009D020280AD0302816D10AE050280ED061
:10052000602811D10EE044F008040DE044F01004FE
:100530000AE044F0200407E044F0400404E044F002
:10054000800401E044F480742868816921F070011E
:100550008161296804204860002C05D0686A204326
:1005600068622846FFF78FFEBDE8F09F70B5040073
:1005700003D094F8200010B104E0012070BD2046A3
:1005800000F082F82068016821F00201016000F0AB
:1005900087FA0546052604E000F082FA401B0A2887
:1005A00011D8206840688007F6D42068016841F0BF
:1005B0000101016000F074FA05460BE000F070FAEA
:1005C000401B0A2806D9606A40F40030606284F853
:1005D0002060D2E720684068C007EFD0207E012865
:1005E000206801683DD021F080010160607E012813
:1005F0002068016838D021F040010160A07E012808
:100600002068016833D021F020010160E07E0128DC
:10061000206801682ED041F010010160207F012880
:100620002068016829D021F008010160607F01285D
:100630002068016824D021F004010160D4E902019E
:100640000843D4E90412114308436168491E084372
:100650002168C86100206062012084F82000002029
:1006600070BD41F08001C0E741F04001C5E741F0B5
:100670002001CAE721F01001CFE741F00801D4E7DB
:1006800041F00401D9E7000010B586B000210091C7
:100690000191029103910068174988422AD11748B5
:1006A000C16941F00071C161C16901F0007104913B
:1006B000816941F0040181618069114C00F00400FE
:1006C00004904FF4006000906946204600F0FAF86C
:1006D000A014009002200190032003906946204658
:1006E00000F0F0F800221146142000F045FA142022
:1006F00000F034FA06B010BD006400400010024063
:10070000000801407047000070B5494A474B00217E
:10071000A2F14000FFF7B8FD454C464D2068102877
:1007200009D101224021284600F0B4F9012280219C
:10073000284600F0AFF92068112809D10022402195
:10074000284600F0A7F900228021284600F0A2F9EF
:100750002068012809D101224021284600F09AF999
:1007600001228021284600F095F92068022809D14D
:1007700000224021284600F08DF9002280212846E1
:1007800000F088F92068032804D10122402128467E
:1007900000F080F92068042804D100224021284676
:1007A00000F078F92068052804D10122802128462C
:1007B00000F070F92068062804D100228021284624
:1007C00000F068F9206818B9C021284600F05AF9ED
:1007D0002068502809D10122C021284600F05AF98A
:1007E00000221021284600F055F92068B0F5807FDE
:1007F00009D10022C021284600F04CF90122102125
:10080000284600F047F92068A0F5806176390BD1C1
:100810000122C021284600F03DF92846BDE870407D
:100820000022102100F036B970BD00000C0000203D
:1008300064000020000801407047704770470000C6
:1008400070B5044690F82000012804D0606A40F496
:100850000020606218E0022084F82000206801680F
:1008600021F00101016000F01BF905460EE000BF18
:1008700000F016F9401B0A2808D9606A40F40030DD
:100880006062052084F82000012070BD2068406867
:10089000C007EDD1606270BD704700000448006879
:1008A000002803D1C021034800F0ECB870470000D5
:1008B0004C000020000801407047704770477047A7
:1008C000704700002DE9F84FDFF89C91002409F1F2
:1008D000040A0AF1040B23460F270BF1040EBBE0B8
:1008E0000125A5402A40AA4276D1DFF880C14E6892
:1008F000A6EB0C0866452BD00DDC032E34D005DCAE
:1009000036B3012E19D0022E2FD11BE0112E16D096
:10091000122E2AD119E0B8F5881F19D006DCB8F5D7
:10092000803F15D0B8F5801F1FD111E0B8F5001F2A
:100930000ED0B8F5041F18D10AE0CB6815E0CB68DB
:100940001B1D12E0CB6808330FE0CB680C330CE0C2
:100950008B682BB1012B4FF0080303D0456104E0F5
:10096000042302E0056100E00023FF2A01D80646C7
:1009700001E000F104064FEA840501D9A5F1200544
:10098000D6F8008007FA05FC28EA0C0803FA05F5FA
:1009900048EA0508C6F800804D68ED005BD5344D87
:1009A000AE6946F00106AE61AD6924F0030605F0BC
:1009B000010500952F4D06EB050CDCF80850A60745
:1009C000360F07FA06F825EA0805DFF8AC8040453F
:1009D00003D14FF0000810E03DE0DFF8A080404573
:1009E00002D14FF0010808E0DFF89480404502D1C1
:1009F0004FF0020801E04FF0030808FA06F848EA51
:100A00000508CCF808804D68D9F80060ED034D4624
:100A100001D5164300E096432E604D68DAF8006079
:100A2000AD03554601D5164300E096432E604D6850
:100A3000DBF80060ED025D4601D5164300E0964309
:100A40002E604D68DEF80060AD02754601D5164394
:100A500000E096432E60641C0A6832FA04F57FF4C5
:100A60003FAFBDE8F88F0000000401400000111006
:100A7000001002400000014000080140000C01404D
:100A800000100140C26821EA02030A4043EA024121
:100A9000016170470AB1016170470904FBE700007A
:100AA00001488068704700001400002002488168F7
:100AB000027811448160704714000020074810B587
:100AC000016841F010010160032000F075F800207A
:100AD00000F006F800F024F8002010BD00200240CD
:100AE00070B50D4D04464FF47A712878B1FBF0F0E3
:100AF0000A490968B1FBF0F000F0CCFA48B9102CB3
:100B000007D200222146501E00F036F800206C600B
:100B100070BD012070BD00001400002020000020E6
:100B20000C4808B5816941F001018161816901F0DA
:100B300001010091C16941F08051C161C06900F0BB
:100B4000805000900448416821F0E06141F000715C
:100B5000416008BD0010024000000140002809DB90
:100B600000F01F02012191404009800000F1E020C7
:100B7000C0F8001170470000F0B40E4B1B680C4623
:100B8000C3F30223C3F10705042D00D90425191D61
:100B9000072901D2002300E0DB1E012606FA05F139
:100BA000491E214099409E40761E16403143F0BCBC
:100BB00000F027BB0CED00E0064900F007020868D2
:100BC0004FF6FF03184040EA0220034A1043086032
:100BD000704700000CED00E00000FA052DE9F04739
:100BE0000F46050061D0434E306800F00700B84260
:100BF00009D2306820F0070038433060306800F0D8
:100C00000700B84251D128683B4C810712D54007F4
:100C100003D5606840F4E06060602878000703D581
:100C2000606840F4605060606068A96820F0F0007F
:100C3000084360602878C00728D06868012810D071
:100C40002168022810D0890700292EDA616821F076
:100C5000030101436160FFF723FF804641F28839B9
:100C60000DE021688903EFE78901EDE7FFF718FF41
:100C7000A0EB0801494502D90320BDE8F087606870
:100C8000696800F00C00B0EB810FEFD1306800F024
:100C90000700B8420BD9306820F0070038433060B5
:100CA000306800F00700B84201D00120E5E728785D
:100CB000400705D56068E96820F4E060084360609B
:100CC0002878000706D56068296920F4605040EA5A
:100CD000C100606000F018F86168084AC1F30311B0
:100CE000515CC8400649086006480068FFF7F8FEF6
:100CF0000020C2E7002002400010024094120008C9
:100D0000200000201800002012A185B00FC98DE836
:100D10000F0014A0144A006804905168134801F0B1
:100D20000C03042B10D0082B0ED1C1F38343C9034D
:100D30001DF803000AD5516804AAC1F34041515C73
:100D40000A4A5043B0FBF1F005B0704708494843E8
:100D5000FAE7000002030405060708090A0B0C0D58
:100D60000E0F1010010200000010024000127A0065
:100D700000093D002DE9F84F040070D02078C04DE7
:100D8000C00749D06868C0F38100012807D06868AF
:100D9000C0F38100022809D16868C00306D528681D
:100DA000800339D560680028E7D035E06068B0F589
:100DB000803F0BD010B1B0F5A02F11D0286820F4DF
:100DC00080302860286820F4802002E0286840F401
:100DD00080302860606890B1FFF762FE06460AE046
:100DE000286840F480202860F0E700BFFFF758FE35
:100DF000801B642873D828688003F7D50CE0FFF7C0
:100E00004FFE064605E000BFFFF74AFE801B642840
:100E1000F0D828688003F7D420789A4E80074FF0E6
:100E200001094FF0000839D5686810F00C0F07D0A1
:100E30006868C0F38100022809D16868C00306D43D
:100E40002868800714D52069012808D110E020699E
:100E5000B0B1C6F80090FFF723FE074605E00AE1AF
:100E6000FFF71EFEC01B0228C4D828688007F7D5EC
:100E70002868616920F0F80040EAC10028600DE0B0
:100E8000C6F80080FFF70CFE074604E0FFF708FEF7
:100E9000C01B022823D828688007F7D420780007D1
:100EA0002CD57948A169D9B1C0F80090FFF7F8FDB9
:100EB000074604E0FFF7F4FDC01B02280FD8686A5C
:100EC0008007F7D571484FF4FA510068B0FBF1F094
:100ED000009000BF0098411E0091FAD20EE080E021
:100EE000C0F80080FFF7DCFD074604E0FFF7D8FDFF
:100EF000C01B022875D8686A8007F7D4207840079D
:100F000060D5E8690027C00008D4E86940F0805047
:100F1000E861E869012700F0805000905C480168B2
:100F2000C90513D40168834641F480710160FFF75D
:100F3000B7FD824606E000BFFFF7B2FDA0EB0A0056
:100F400064284ED8DBF80000C005F5D5E06801281C
:100F50000AD008B1052813D0286A20F001002862C1
:100F6000286A20F0040002E0286A40F001002862AC
:100F7000E06841F2883B98B1FFF792FD82460BE0B2
:100F8000286A40F004002862EEE700BFFFF788FD02
:100F9000A0EB0A0159455AD8286A8007F6D50CE01B
:100FA000FFF77EFD824605E0FFF77AFDA0EB0A0120
:100FB00059454CD8286A8007F6D41FB1E86920F05B
:100FC0008050E861E06988B36968C1F38101022952
:100FD00044D00228C6F8608004D0FFF761FD0446C3
:100FE00038E034E0FFF75CFD074604E0FFF758FD0A
:100FF000C01B02282BD828688001F7D4206AB0F5DE
:10100000803F05D16868A16820F40030084368601B
:10101000D4E908010843696821F474110843686041
:10102000C6F86090FFF73CFD044606E025E000BFEF
:10103000FFF736FD001B022809D828688001F7D584
:101040001BE000BFFFF72CFD001B022802D9032084
:10105000BDE8F88F28688001F4D40EE00128F7D0AD
:101060006868226A00F48031914204D1616A00F418
:101070007010884201D00120EAE70020E8E7000074
:101080000010024000004242800442422000002042
:101090000070004010B5401EB0F1807F01D30120E8
:1010A00010BD4FF0E02460610F21601700F0A9F837
:1010B0000020A06107202061002010BDFEE7000095
:1010C0000B480A494FF4402201600A214160002187
:1010D0008160C0E903124FF48012426101764176CB
:1010E0008176C17601774177FFF740BA006400400E
:1010F000240000202DE9F04186B00024234800940C
:10110000019402940394816941F010018161816925
:1011100001F010010491816941F020018161816930
:1011200001F020010491816941F00401816180692D
:10113000174F00F004004FF4005504900022294698
:101140003846FFF7A7FCDFF84C800122102140460B
:10115000FFF7A0FC0022C0214046FFF79BFC009552
:10116000032601250396CDE9015469463846FFF769
:10117000A9FBD020CDE90005CDE9024669464046ED
:10118000FFF7A0FB06B0BDE8F081000000100240B0
:101190000010014000080140FEE7704770477047AB
:1011A000FFF784BC30B58FB028216846FEF7C3FF37
:1011B00014210AA8FEF7BFFF01210804CDE90010A1
:1011C0000024029402250491CDE907504FF4E01069
:1011D00009906846FFF7CEFD0F20CDE90A05802073
:1011E000CDE90C0402210AA80E94FFF7F7FC0FB01A
:1011F00030BD70470148FFF7BBB800002400002055
:10120000FEE70907090E002804DB00F1E02080F862
:101210000014704700F00F0000F1E02080F8141D6A
:10122000704702E008C8121F08C1002AFAD17047AF
:101230007047002001E001C1121F002AFBD1704756
:101240008AB0FFF73BFCFFF7ADFFFFF753FFFFF757
:1012500037FF0020012103900490CDE90601CDE97C
:101260000810059000900190029069460848FEF72A
:1012700093FF0748FFF7E4FA03210548FEF77AFFDA
:101280000348FFF7DDFA02210148FEF773FFFEE78E
:101290002400002000000000000000000102030400
:1012A00006070809C41200080000002024000000FE
:1012B00022120008E8120008240000205C0400004C
:1012C00032120008000000000000000000000000D2
:1012D00000000000000000000100000010000000FD
:0812E000000000000024F400EE
:04000005080000ED02
:00000001FF
