:020000040800F2
:1000000018050020DD010008CF240008EB220008BD
:10001000CD2400081D040008192B00080000000072
:10002000000000000000000000000000DD250008C6
:100030008504000800000000F1240008DF25000806
:10004000F7010008F7010008F7010008F7010008B0
:10005000F7010008F7010008F7010008F7010008A0
:10006000F7010008F7010008F7010008F701000890
:10007000F7010008F7010008F7010008F701000880
:10008000F7010008F7010008ED0200082D04000840
:1000900021040008F7010008F7010008F701000833
:1000A000F7010008F7010008F7010008F701000850
:1000B000F7010008F7010008F7010008F701000840
:1000C000F7010008F7010008F7010008F701000830
:1000D000F7010008F70100080D2B0008F7010008E0
:1000E000F7010008F7010008F7010008F701000810
:1000F000F7010008F7010008F7010008F701000800
:10010000F7010008F7010008F7010008F7010008EF
:10011000F7010008F7010008F7010008F7010008DF
:10012000F7010008F7010008F7010008F7010008CF
:10013000F70100080000000000000000F7010008BF
:10014000F7010008F7010008F7010008F7010008AF
:10015000F7010008F7010008F7010008F70100089F
:10016000F7010008F7010008F7010008F70100088F
:10017000F7010008F7010008F7010008000000007F
:1001800000000000F701000800000000000000006F
:10019000F70100080000000000000000F70100085F
:1001A000000000000000000000000000F70100084F
:1001B000F7010008F7010008F7010008F70100083F
:1001C000F7010008DFF810D000F07EF80048004783
:1001D000352E0008AFF30080180500200648804740
:1001E00006480047FEE7FEE7FEE7FEE7FEE7FEE71C
:1001F000FEE7FEE7FEE7FEE78D260008C5010008E2
:100200002DE9F05F0546002092469B46884606464B
:10021000814640241BE0284641464746224600F0DE
:1002200042F853465A46C01A914110D31146184617
:10023000224600F029F82D1A67EB01084F462246A6
:100240000120002100F020F817EB00094E41201E8C
:10025000A4F10104DFDC484631462A464346BDE8A6
:10026000F09F00000649074A0868504343F23902EC
:10027000104408604008704701490860704700005A
:10028000280000206D4EC641202A04DB203A00FAE7
:1002900002F1002070479140C2F1200320FA03F3DD
:1002A000194390407047202A04DB203A21FA02F0DB
:1002B0000021704721FA02F3D040C2F120029140A0
:1002C0000843194670470000064C074D06E0E068F9
:1002D00040F0010394E8070098471034AC42F6D38D
:1002E000FFF774FF402F0008602F0008014800F05E
:1002F00087B9000030000020454910B54A6822F453
:1003000040324A604A6843681A434A6001684A6852
:1003100022F480724A6001684A68036942EA032253
:100320004A6001684A6822F040724A6001684A687F
:1003300083681A434A6001688A6822F400628A600E
:1003400001688A68C3681A438A60816A6FF07062C4
:10035000D14201688A6822F070628A6001688A6806
:100360000CD0836A1A438A6001688A6822F040527E
:100370008A6001688A68C36A1A4301E022F0405229
:100380008A6001688A6822F002028A6001688A68CD
:10039000836942EA43028A60016A002901684A6867
:1003A0000FD042F400624A6001684A6822F4604259
:1003B0004A6001684A68174C436A04EB43331A43A6
:1003C00001E022F400624A600168CA6A22F4700205
:1003D000CA620168CA6A838B0F4C04EB03531A4349
:1003E000CA6201688A6822F400728A6001688A68B9
:1003F000036B42EA43228A6001688A6822F48062C1
:100400008A6001688A68406942EA8020886010BD7D
:100410000023014000E0FFFF0000F0FFFEE70000C6
:10042000014800F0CBBB000078000020014800F03C
:10043000C5BB0000780000202DE9F04105460024EE
:10044000FF260E4FFFF70EFF90FBF6F106FB1100A3
:100450003855641C082CF5DB094900200822C860C7
:100460000D600A6188600875BDE8F041034BA1F199
:1004700068001B1F1A1D00F02FBA000008000020A2
:10048000E00000207047704778B50024009490F891
:100490003C20012A19D0012280F83C200A68072359
:1004A0000568092A13D9EE680A3A02EB4202934022
:1004B0009E43EE600A788B680A3A02EB4202934050
:1004C0000268D5682B43D36010E0022078BD2E6906
:1004D00002EB420293409E432E610A788B6802EB46
:1004E00042029340026815692B4313614A681F2337
:1004F000072A13D205686E6B521E02EB82029340EC
:100500009E436E630B790A885B1E92B203EB8303F2
:100510009A4003685D6B2A435A6327E005680D2AF9
:1005200012D22E6BD21F02EB820293409E432E63A7
:100530000B790A88DB1F92B203EB83039A400368AE
:100540001D6B2A431A6311E0EE6A0D3A02EB820238
:1005500093409E43EE620B790A880D3B92B203EB07
:1005600083039A400368DD6A2A43DA62174B056801
:10057000154A9D4206D10D68122D03D1556845F4E8
:100580008005556005689D4219D1114D0B68AB423D
:1005900001D0112B13D1536843F400035360096851
:1005A000A9420CD10B490C4A0968B1FBF2F101EBED
:1005B0008101490000E0491E00910029FBD180F82B
:1005C0003C40002078BD0000002301400020014095
:1005D000120000102400002040420F0010B5044A11
:1005E0000168914203D100F008F80249088010BD6B
:1005F000002001400000002070470068C06C704778
:1006000070B50446006801684268C1F34001C2F356
:10061000401251B34AB3216CC90603D4216C41F492
:1006200000712164816811F0405F17D1A169A9B9F7
:10063000C16A11F4700F02D0816849050ED4416877
:1006400021F020014160206C20F480702064206C37
:10065000C00403D4206C40F0010020642046FFF762
:10066000BDFF21686FF012000860206801684268D1
:10067000C1F38001C2F3C01289B382B3216CC906F1
:1006800003D4216C41F400512164816811F4401FAE
:100690001ED1816B11F4401F02D08168490517D427
:1006A0004168490514D4816811F0405F10D1A169F7
:1006B00071B9416821F080014160206C20F48050C4
:1006C0002064206CC00503D4206C40F0010020643D
:1006D0002046FFF7D8FE21686FF00C000860206804
:1006E0000168426811F0010FC2F380120ED06AB1A6
:1006F0000068C0070AD0206C40F480302064204697
:1007000000F046F821686FF0010008602068016879
:100710004268C1F34011C2F3806200290DD0002A63
:100720000BD0616C41F0020161646FF0200505603F
:100730002046FFF761FF2068056070BD70B50400BA
:100740004FF0000503D0206C002610B107E0012017
:1007500070BD666484F83C60204600F01BF8206C95
:10076000C00610D4206C20F4885040F002002064B1
:100770002046FFF7C1FD6664206C20F0020040F0C7
:100780000100206400E0012584F83C60284670BD2B
:100790007047000000B50068104987B088421AD140
:1007A0000F480021026842F480720260006800F481
:1007B00080700590012000900320CDE90101694679
:1007C000084800F0D1FF00221146122001F042F942
:1007D000122001F033F907B000BD000000200140F5
:1007E000443802400000024018B50021009190F802
:1007F0003C20012A07D0012280F83C20026893683F
:10080000DB0702D011E0022018BD936843F001031A
:100810009360224A224B1268B2FBF3F202EB4202CF
:1008200000E0521E0092002AFBD102689368DB07A9
:1008300032D0036C40F20164A34343F48073036439
:1008400053685B0505D5036C23F4005343F48053D0
:100850000364036CDB0404D5436C23F00603436498
:1008600000E0416480F83C100E4B6FF022011160F3
:1008700001684A680C4C22434A6059680068C906FE
:1008800002D00A49884207D1816811F0405F03D144
:10089000816841F080418160002018BD2400002063
:1008A00040420F00002301402000000400200140CE
:1008B00090F82020012A09D090F82020022A05D0A3
:1008C000416A41F480214162012070470068426919
:1008D0000A43426100207047F0B590F82040012C97
:1008E00007D090F82040022C03D0416A41F48021C7
:1008F0005DE00468A5686D0105D4A5682D0102D4EA
:10090000A568ED0050D5A4680125C4F30164A54095
:100910001D608D684FF4C0739DB1CE6835434E683D
:1009200045EAC605066803EB0417F5514FF4C27596
:10093000076805EB04150E697E51097D012905D074
:1009400009E00E88CD6845EA4655EBE701684E5947
:1009500046F480764E511179D579567941EA056190
:1009600095792D0445EA062529434FF4C676056896
:1009700006EB0416A9511178D57841EA05619578FE
:1009800052782D0445EA022211434FF4C4750268DF
:1009900005EB04155151006803EB0411425842F075
:1009A000010242500020F0BD416A41F40011416251
:1009B0000120F0BD10B590F82020012A09D090F850
:1009C0002020022A05D0416A41F4802141620120A1
:1009D00010BD3A48D0F8002242F00102C0F80022CF
:1009E000D0F8002222F47C52C0F80022D0F8002275
:1009F0004B6A42EA0322C0F800220B7D01229A4092
:100A0000D0F81C329343C0F81C32CB69B3B9D0F88C
:100A10000C329343C0F80C328C894B6864F31F434B
:100A20004C6900EBC404C4F840320C890B6864F3D1
:100A30001F434C6900EBC404C4F84432CB69012B5A
:100A400016D1D0F80C321343C0F80C320C884B6826
:100A500064F31F434C6900EBC404C4F840320C89B2
:100A6000CB6864F31F434C6900EBC404C4F8443200
:100A70008B69002BD0F804320ED01343C0F8043237
:100A80000B69002BD0F8143208D01343C0F814328D
:100A9000096A012904D008E09343EFE79343F5E79F
:100AA000D0F81C121143C0F81C12D0F8001221F02B
:100AB0000101C0F80012002010BD000000640040D9
:100AC000704730B590F82040012C07D090F82040B6
:100AD000022C03D0416A41F4802109E011B10129BF
:100AE00009D00CE00468E46807E0416A41F40011B1
:100AF0004162012030BD04682469A407F5D04FF499
:100B0000D874056804EB01142D5915F0040595609F
:100B100005682D5942D0ED08556005682C59C4F37D
:100B20004004D4604FF4DA74056804EB01142D59C5
:100B300005F00F05156105682D59C5F30725956169
:100B400005682C59240C54614FF4DC72046802EBE4
:100B50000112A4581C700468A458240A5C7004682C
:100B6000A458240C9C700468A258120EDA704FF43A
:100B7000DE72046802EB0112A4581C710468A458C8
:100B8000240A5C710468A458240C9C710468A2585F
:100B9000120EDA7129B1012909D00DE06D0D156031
:100BA000BBE70068C16841F02001C16004E0006853
:100BB000016941F020010161002030BD2DE9F05FA5
:100BC0000546006800244669D0F804908768D0F88C
:100BD0000CB0D0F810A0D0F81880F10748D0F90771
:100BE00014D001218160B80703D5284600F0F8FB36
:100BF0000CE0780702D54FF4006407E0380702D50F
:100C00004FF4805402E0284600F0E8FBF80516D5C2
:100C100029684FF480708860B80503D5284600F035
:100C20007AFD0CE0780502D544F4005407E038055D
:100C300002D544F4804402E0284600F06BFDF8033E
:100C400016D529684FF480308860B80303D528464C
:100C500000F063FD0CE0780302D544F4004407E0A3
:100C6000380302D544F4803402E0284600F054FDF5
:100C7000300707D55FEACB6004D52968102044F41B
:100C80000074C86070074FF0080707D55FEA0B7063
:100C900004D52868C760284600F052F9B00706D589
:100CA0002868C068800702D0284600F04BF970061B
:100CB00007D55FEACA6004D52968102044F480642F
:100CC0000861B00607D55FEA0A7004D52868076195
:100CD000284600F053FBF00606D528680069800717
:100CE00002D0284600F04BFBB00308D55FEAC9608C
:100CF00005D5296810204860284600F041FBF00324
:100D000007D55FEA097004D528684760284600F0D7
:100D100005FD300446D55FEA497040D5F00504D59D
:100D20005FEAC87001D044F00104B00504D55FEA61
:100D3000887001D544F00204700504D55FEA48705C
:100D400001D544F00404300529D518F0700F26D0E1
:100D500008F07000402815D006DC102809D02028A3
:100D60000AD0302816D10AE050280ED0602811D1C0
:100D70000EE044F008040DE044F010040AE044F0F2
:100D8000200407E044F0400404E044F0800401E063
:100D900044F480742868816921F0700181612968B8
:100DA00004204860002C05D0686A20436862284609
:100DB000FFF786FEBDE8F09F70B5040003D094F8FD
:100DC000200010B104E0012070BD204600F082F840
:100DD0002068016821F00201016000F0A5FD0546D0
:100DE000052604E000F0A0FD401B0A2811D8206869
:100DF00040688007F6D42068016841F00101016075
:100E000000F092FD05460BE000F08EFD401B0A2825
:100E100006D9606A40F40030606284F82060D2E74E
:100E200020684068C007EFD0207E01282068016854
:100E30003DD021F080010160607E012820680168BA
:100E400038D021F040010160A07E012820680168AF
:100E500033D021F020010160E07E01282068016884
:100E60002ED041F010010160207F01282068016828
:100E700029D021F008010160607F01282068016805
:100E800024D021F004010160D4E902010843D4E92F
:100E90000412114308436168491E08432168C86170
:100EA00000206062012084F82000002070BD41F025
:100EB0008001C0E741F04001C5E741F02001CAE7E9
:100EC00021F01001CFE741F00801D4E741F004011F
:100ED000D9E7000000B50068164987B0884227D1DD
:100EE00015480021026842F000720260006800F0BC
:100EF000007005904FF4C05000900220CDE9010130
:100F0000032003900920049069460C4800F02CFC53
:100F100000221146132000F09DFD132000F08EFDED
:100F200000221146142000F095FD142000F086FDEB
:100F300007B000BD0064004040380240000002409D
:100F4000704700002DE9F047B74AB64B0021A2F1E7
:100F50008000FFF7B6FDB44CB44EB24D20684FF49C
:100F6000807810281BD101224021304600F0D7FCA8
:100F700001224146304600F0D2FCADA0216801F0CC
:100F8000CDFD0027ADA0E95D01F0C8FD7F1C082F55
:100F9000F8DBACA001F0C2FDABA001F0BFFD206802
:100FA00011281BD100224021304600F0B8FC00225D
:100FB0004146304600F0B3FC9DA0216801F0AEFD33
:100FC00000279EA0E95D01F0A9FD7F1C082FF8DB3A
:100FD0009CA001F0A3FDA2A001F0A0FD20680128C3
:100FE0001BD101224021304600F099FC01224146EC
:100FF000304600F094FCA0A0216801F08FFD00278E
:101000008EA0E95D01F08AFD7F1C082FF8DB8DA022
:1010100001F084FD9BA001F081FD206802281BD116
:1010200000224021304600F07AFC00224146304642
:1010300000F075FC90A0216801F070FD00277FA0F2
:10104000E95D01F06BFD7F1C082FF8DB7DA001F04E
:1010500065FD93A001F062FD2068032816D10122EE
:101060004021304600F05BFC83A0216801F056FD72
:10107000002772A0E95D01F051FD7F1C082FF8DB0D
:1010800070A001F04BFD8DA001F048FD2068042800
:1010900016D100224021304600F041FC76A02168A4
:1010A00001F03CFD002765A0E95D01F037FD7F1CE4
:1010B000082FF8DB63A001F031FD85A001F02EFDC3
:1010C0002068052816D101224146304600F027FC51
:1010D00069A0216801F022FD002758A0E95D01F018
:1010E0001DFD7F1C082FF8DB56A001F017FD7DA029
:1010F00001F014FD2068062816D100224146304632
:1011000000F00DFC5CA0216801F008FD00274BA059
:10111000E95D01F003FD7F1C082FF8DB49A001F019
:10112000FDFC75A001F0FAFC20684FF4A07A50286D
:1011300016D101225146304600F0F1FB4EA0216845
:1011400001F0ECFC00273DA0E95D01F0E7FC7F1C0D
:10115000082FF8DB3BA001F0E1FC6CA001F0DEFC05
:101160002068DFF8D891512818D101225146304625
:1011700000F0D5FB00224146484600F0D0FB3EA0DF
:10118000216801F0CBFC00272CA0E95D01F0C6FC32
:101190007F1C082FF8DB2BA001F0C0FC2068404525
:1011A0001BD100225146304600F0B9FB01224146D6
:1011B000484600F0B4FB30A0216801F0AFFC0027E6
:1011C0001EA0E95D01F0AAFC7F1C082FF8DB1DA022
:1011D00001F0A4FC5AA001F0A1FC2068A0F58061F8
:1011E00076391DD101225146304600F098FB00228D
:1011F0004146484600F093FB1FA0216801F08EFC99
:1012000000240EA0295D01F089FC641C082CF8DB89
:101210000CA001F083FCBDE8F0474CA001F07EBCBF
:10122000BDE8F08710000020F80000200008024010
:101230004944203A20307825780A0000257820207B
:10124000000000000A0000006261742074617420D4
:101250006361207175617420262064656E0D0A003B
:1012600074617420746174206361207175617420ED
:10127000262064656E0D0A004944203A20307830FB
:1012800025780A00626174207461742063612043D0
:10129000414E204E6F6465206E68616E0D0A00003D
:1012A000746174207461742063612043414E204E48
:1012B0006F6465206E68616E0D0A000062617420C3
:1012C0007461742063612064656E0D0A0000000083
:1012D000746174207461742063612064656E0D0A0A
:1012E00000000000626174207461742063612071E9
:1012F0007561740D0A0000007461742074617420BB
:10130000636120717561740D0A000000706861747A
:10131000206869656E206B686920676173203434CA
:10132000360A2064696575206B6869656E206D6F8B
:1013300064756C652073696D0D0A0000000402403D
:1013400074617420636F690A000000007068617442
:10135000206869656E206B68692067617320343787
:10136000360A2064696575206B6869656E206D6F4B
:1013700064756C652073696D0D0A000070477047D5
:101380007047000070B5044690F82000012804D092
:10139000606A40F40020606218E0022084F82000B7
:1013A0002068016821F00101016000F0BDFA0546E6
:1013B0000EE000BF00F0B8FA401B0A2808D9606AA6
:1013C00040F400306062052084F82000012070BDE8
:1013D00020684068C007EDD1606270BD70470000B2
:1013E0002DE9F05F884FDFF82482894C386807F1D7
:1013F00018054FF4807910281CD10122402146465F
:10140000404600F08CFA01224946304600F087FA47
:1014100080A0296801F082FB002681A0A15D01F077
:101420007DFB761C082EF8DB7FA001F077FB7FA008
:1014300001F074FB386811281CD100224021464677
:10144000404600F06CFA00224946304600F067FA48
:1014500070A0296801F062FB002671A0A15D01F077
:101460005DFB761C082EF8DB6FA001F057FB75A022
:1014700001F054FB3868032816D101224021404670
:1014800000F04DFA63A0296801F048FB002664A033
:10149000A15D01F043FB761C082EF8DB62A001F091
:1014A0003DFB6FA001F03AFB3868042816D10022FA
:1014B0004021404600F033FA56A0296801F02EFB87
:1014C000002657A0A15D01F029FB761C082EF8DB51
:1014D00055A001F023FB67A001F020FB3868052828
:1014E00016D101224946404600F019FA49A0296860
:1014F00001F014FB00264AA0A15D01F00FFB761C51
:10150000082EF8DB48A001F009FB5FA001F006FB04
:101510003868062816D100224946404600F0FFF9F7
:101520003CA0296801F0FAFA00263DA0A15D01F077
:10153000F5FA761C082EF8DB3BA001F0EFFA57A075
:1015400001F0ECFA38684FF4A07BA8B95946404640
:1015500000F0E1F92FA0296801F0E0FA002630A0A0
:10156000A15D01F0DBFA761C082EF8DB2EA001F05D
:10157000D5FA4FA001F0D2FA3868DFF850A1502810
:101580001ED101225946404600F0C9F900224946C1
:10159000504600F0C4F91FA0296801F0BFFA0026E8
:1015A0001FA0A15D01F0BAFA761C082EF8DB1EA080
:1015B00001F0B4FA46A001F0B1FA4AA001F0AEFA87
:1015C00038684E46B0421DD100225946404600F0D0
:1015D000A6F901223146504600F0A1F90DA0296874
:1015E00001F09CFA00250EA0615D01F097FA6D1CD8
:1015F000082DF8DB0CA001F091FABDE8F05F3FA0E8
:1016000001F08CBABDE8F09FE00000200008024025
:10161000100000204944203A2030783025780A0014
:1016200025782020000000000A000000626174207C
:101630007461742063612071756174202620646573
:101640006E0D0A007461742074617420206361203F
:101650007175617420262064656E0D0A000000001B
:10166000626174207461742063612064656E0D0A88
:101670000000000074617420746174206361206450
:10168000656E0D0A000000006261742074617420B0
:10169000636120717561740D0A000000746174202B
:1016A00074617420636120717561740D0A0000001B
:1016B00064616F207472616E672074686169207460
:1016C000686965742062690D0A0000000004024028
:1016D00070686174206869656E206B686920476175
:1016E000730D0A0064696575206B6869656E206D0D
:1016F0006F64756C652073696D0D0A0074617420E8
:101700007461742063612074686965742062690D76
:101710000A0000007047704770477047704790F8A4
:101720003510022903D08021416501207047052131
:1017300080F835100068016821F001010160002087
:101740007047000070B5044600F0EEF80546601CD6
:1017500002D004480078044400F0E6F8401BA042A0
:10176000FAD370BD180000202DE9F84FDFF874B1EE
:1017700000224FF001084FF0030A4FF00F090BF160
:10178000040E00BF0B6808FA02F42340A3426ED196
:101790004D68022D01D0122D0ED1D50800EB850C1D
:1017A000DCF820505607F70E09FA07F6B5430E6924
:1017B000BE402E43CCF82060066855000F790AFA27
:1017C00005FC07F0030726EA0C06AF403743076025
:1017D0004E68012E05D0022E03D0112E01D0122EFC
:1017E0000ED18668CF6826EA0C06AF403743876083
:1017F0004668A6430C79C4F3001494403443446013
:10180000C4688E6824EA0C04AE402643C6604C6867
:10181000E40060D5344C256845F480452560246893
:1018200022F0030504F480440094304C2E19D6F8BD
:10183000084895072F0F09FA07F5AC432C4DA8422D
:1018400001D100251FE02B4DA84201D101251AE04E
:10185000294DA84201D1022515E0284DA84201D109
:10186000032510E0264DA84202D104250BE032E00A
:10187000244DA84201D1052505E0234DA84201D100
:10188000062500E00725BD402543C6F80858DBF8CB
:1018900000405D464E689C43F60300D51C432C6017
:1018A000DEF8004075464E689C43B60300D51C43E5
:1018B0002C600C4D08352C684E689C43F60200D510
:1018C0001C432C60074D0C352C684E689C43B602B7
:1018D00000D51C432C60521C102AFFF453AFBDE806
:1018E000F88F0000003C01404438024000300140C5
:1018F000000002400004024000080240000C0240C8
:101900000010024000140240001802400069084024
:1019100000D00120704742694A40426170470AB1D5
:10192000816170470904FBE7014880687047000047
:1019300018000020024881680278114481607047D5
:10194000180000200B4810B5016841F400710160D7
:10195000016841F480610160016841F480710160B7
:10196000032000F097F8002000F006F800F024F8BB
:10197000002010BD003C024070B50D4D04464FF4F0
:101980007A712878B1FBF0F00A490968B1FBF0F0F0
:1019900000F04BFB48B9102C07D200222146501E04
:1019A00000F058F800206C6070BD012070BD000090
:1019B00018000020240000201F4808B5016841F4E9
:1019C00080410160006800F4804000901A48001FC8
:1019D000016841F080510160006800F08050009083
:1019E000032000F057F8002211466FF00B0000F0C2
:1019F00031F8002211466FF00A0000F02BF80022A7
:101A000011466FF0090000F025F800221146501F22
:101A100000F020F800221146101F00F01BF80022F1
:101A20001146901E00F016F80022BDE8084011464D
:101A3000501E00F00FB800004438024000F01F02B2
:101A4000012191404009800000F1E020C0F8001120
:101A500070470000F0B40E4B1B680C46C3F3022322
:101A6000C3F10705042D00D90425191D072901D24A
:101A7000002300E0DB1E012606FA05F1491E214085
:101A800099409E40761E16403143F0BC00F020BDC8
:101A90000CED00E0064900F0070208684FF6FF036E
:101AA000184040EA0220034A1043086070470000D3
:101AB0000CED00E00000FA052DE9F0470E460500A8
:101AC00065D0DFF81481D8F80000F7B200F00F00FD
:101AD000B04207D288F80070D8F8000000F00F007C
:101AE000B04254D128683D4C810712D5400703D538
:101AF000206840F4E05020602878000703D5206873
:101B000040F4604020602068A96820F0F00008439D
:101B100020602878C0072DD030496868083901282E
:101B200012D0022813D0032811D009688907002990
:101B30002DDA216821F0030101432160FFF7F4FE53
:101B4000814641F2883A0EE009688903EFE70968A7
:101B50008901ECE7FFF7E8FEA0EB0901514502D946
:101B60000320BDE8F0872068696800F00C00B0EB46
:101B7000810FEFD1D8F80010404601F00F01B142BB
:101B800007D90770006800F00F00B04201D00120B3
:101B9000E7E72878400705D52068E96820F4E05099
:101BA000084320602878000706D52068296920F4BA
:101BB000604040EAC100206000F03CF82168084A1B
:101BC000C1F30311515CC840064908600020FFF7CB
:101BD000D3FE0020C5E70000003C02400838024068
:101BE000282F0008240000200148006870470000EA
:101BF000240000200448054900680968044AC1F32C
:101C00008221515CC84070472400002008380240FF
:101C1000382F00080448054900680968044AC1F3E0
:101C20004231515CC840704724000020083802400F
:101C3000382F0008224810B5006810F00C02214827
:101C400015D02149042A11D01D4C241F082A0FD079
:101C50000C2A0CD12268236802F03F025B0221D5D6
:101C60002068C0F38810A0FB010120E0084610BDE9
:101C70002268236802F03F025B0205D52068C0F3AA
:101C80008810A0FB010104E02168C1F38811A1FBC9
:101C900000010023FEF7B4FA2168C1F30141491C99
:101CA00049000AE02168C1F38811A1FB000100236B
:101CB000FEF7A6FA2168C1F30271B0FBF1F010BD86
:101CC000083802400024F40040787D012DE9F84FE7
:101CD0000546DFF828B30078ABF10407C007A7F189
:101CE000040451D0DBF800105846C1F381010129EA
:101CF0000FD00168C1F38101022902D1396849027C
:101D000007D40068C0F38100032809D13868400275
:101D100006D52068800337D56868002872D033E084
:101D20006868B0F5803F10D0B0F5A02F206810D0C3
:101D300020F480302060206820F4802020606868D3
:101D4000A8B1FFF7F1FD06460DE0206840F48030B1
:101D5000F4E740F480202060F7E700BFFFF7E4FDE0
:101D6000801B642878D820688003F7D50CE0FFF743
:101D7000DBFD064605E000BFFFF7D6FD801B6428AB
:101D8000F0D820688003F7D42878DFF874928007B1
:101D90004FF0000A46D5DBF80010584611F00C0F42
:101DA0000FD00168C1F38101022902D139684902CB
:101DB00007D50068C0F38100032809D138684002C4
:101DC00006D42068800715D5E86801281AD111E0EB
:101DD000E868C0B10120C9F80000FFF7A5FD06467C
:101DE00005E000BFFFF7A0FD801B0228BAD82068DD
:101DF0008007F7D52068296920F0F80040EAC10083
:101E000020600FE0F7E0C9F800A0FFF78DFD06465F
:101E100005E000BFFFF788FD801B02281CD8206862
:101E20008007F7D42878000727D5DFF8D0817548D8
:101E3000696908F16C0881B101210160FFF774FD47
:101E4000064604E0FFF770FD801B022804D8D8F88E
:101E500000008007F6D510E089E0C0F800A0FFF789
:101E600063FD064605E000BFFFF75EFD801B02280C
:101E70007DD8D8F800008007F6D42878400769D5C7
:101E80005E484FF0000838300068C0000BD45B4853
:101E90003830016841F08051016000684FF001085E
:101EA00000F080500090584E3068C00511D4306862
:101EB00040F480703060FFF737FD009006E000BF0F
:101EC000FFF732FD0099401A022850D83068C0054B
:101ED000F6D54A4EA868683601280FD00528306824
:101EE00010D020F001003060306820F00400306035
:101EF000A868B8B1FFF718FD00900FE0306840F017
:101F00000100F4E740F004003060F7E7FFF70CFD54
:101F10000099411A41F28830814264D830688007C4
:101F2000F4D50EE0FFF700FD009007E0FFF7FCFCA2
:101F30000099411A41F28830814254D830688007B4
:101F4000F4D4B8F1000F05D02C483830016821F0E6
:101F500080510160A869A8B3DBF80010C1F38101CA
:101F6000022948D00228C9F860A005D000E03AE074
:101F7000FFF7DAFC054639E0FFF7D6FC064604E039
:101F8000FFF7D2FC801B02282DD820688001F7D4EF
:101F9000F5E907010843E9681C4A490802EB0141D9
:101FA000AA6841EA82110843297C40EA0160297D40
:101FB00040EA017038600120C9F86000FFF7B4FC06
:101FC000054606E015E000BFFFF7AEFC401B022807
:101FD00009D820688001F7D50BE000BFFFF7A4FC0B
:101FE000401B022802D90320BDE8F88F2068800139
:101FF000F4D40020F8E70120F6E70000083802409A
:1020000000004742800E4742007000400000FFFF82
:102010004FF0E0210428086903D020F00400086193
:10202000704740F00400FAE7704710B5401EB0F169
:10203000807F01D3012010BD4FF0E02460610F21AB
:10204000601700F045FA0020A06107202061002001
:1020500010BD10B5FFF7E8FF10BD704770B50268FE
:1020600004461068D168536910F00F0F50D003F088
:10207000010501F4907635435DD0C20705D0CA054D
:1020800003D5E26B42F00102E263420705D5DA07AD
:1020900003D0E26B42F00202E263820705D5DA0761
:1020A00003D0E26B42F00402E263020705D5DA07CF
:1020B00003D0E26B42F00802E263E26B002A33D005
:1020C000800604D5880602D5204600F01FFB206854
:1020D0004069E16BC0F38010090700D428B32046A3
:1020E00000F006FB2068416949061AD5416921F0D4
:1020F00040014161606BA0B11B490165606BFFF756
:102100000EFB002810D0606B016DBDE870400847E1
:10211000830610D58B060ED52046BDE8704000F032
:10212000F5BA2046FFF799FF70BD2046FFF795FFEF
:102130000020E06370BD030606D50B0604D52046DB
:10214000BDE8704000F07EBC4006F3D54806F1D5EE
:10215000D168204621F04001D160202184F8391057
:1021600000F0C2F870BD0000E126000870B5040060
:1021700004D094F83900002510B106E0012070BDAC
:1021800084F83850204600F023F8242084F83900E1
:102190002068C16821F40051C160204600F0FCFABB
:1021A0002068016921F4904101612068416921F0B2
:1021B0002A0141612068C16841F40051C160E563B2
:1021C000202084F8390084F83A00002070BD000017
:1021D00000B50068124987B088421ED111480168D5
:1021E00041F4003101600068694600F40030059058
:1021F0000C20009002200190012002900320039007
:10220000072004900848FFF7AFFA00221146262065
:10221000FFF720FC2620FFF711FC07B000BD0000EF
:1022200000440040403802400000024070472DE961
:10223000F843044690F839001F4616460D462028FC
:1022400050D1A5B19EB194F8380001284AD00120A0
:1022500084F838004FF00008C4F83C80212084F84E
:102260003900FFF761FBA6848146E68426E0012061
:10227000BDE8F883E08C401EE084A0684B46B0F5D2
:10228000805F4FF000024FF080012046009703D09E
:1022900000F009FCE8B90DE000F005FCC8B9288899
:1022A0002168C0F308004860206908B16D1C05E092
:1022B000AD1C03E0216815F8010B4860E08C002894
:1022C000D8D14B46002240212046009700F0EBFB7E
:1022D00008B10320CCE7202084F8390084F8388046
:1022E0000020C5E70220C3E77047FEE770B51A4833
:1022F00086B00024016841F0040101600068174EB7
:1023000000F004004FF4E05505902246294630467F
:10231000FFF705FB00950125CDE9015469463046DC
:102320000394FFF721FA0F208DE83100694630460B
:10233000FFF71AFA012291023046FFF7F0FA012264
:10234000D1023046FFF7EBFA012211033046FFF7C6
:10235000E6FA06B070BD00003038024000080240C6
:102360007FB511480F490024C0E90014012505611B
:10237000846085610D490462C0E90A14C460C561C6
:1023800045610463FEF7DAF900B1FEE7CDE90045E7
:10239000694605480294FEF777F8002800D0FEE76A
:1023A0007FBD000000200140300000200100000F30
:1023B0000E4810B50C4901600A21416000214FF41C
:1023C00040228160C0E903124FF48012426101761D
:1023D00041768176C17601774177FEF7EDFC0028E2
:1023E00000D0FEE710BD000000640040780000202F
:1023F0002DE9F04F314887B00024016841F0040115
:102400000160016801F004010591016841F00101DA
:102410000160016801F001010591016841F00201CC
:1024200001600068DFF8989000F00200059000223B
:1024300020214846FFF773FADFF888A04FF4A07711
:10244000002239465046FFF76AFADFF87CB04FF4B5
:102450008078012241465846FFF761FA4FF4005058
:1024600001258DE8310069465046FFF77DF92020AF
:102470000326CDE90005CDE9024669464846FFF747
:1024800073F900970396CDE9015469465046FFF76A
:102490006BF96802CDE90004694650460294FFF7E3
:1024A00063F9CDF800800396CDE90154694658469A
:1024B000FFF75AF907B0BDE8F08F0000303802404E
:1024C000000002400008024000040240FEE770479E
:1024D0000907090E002806DA00F00F0000F1E020DD
:1024E00080F8141D704700F1E02080F80014704758
:1024F0007047000070B5384D00244FF480662246C6
:1025000031462846FFF70BFA01212846FFF7FEF96E
:1025100000B9012402212846FFF7F8F900B9042484
:1025200004212846FFF7F2F900B9072408212846BC
:10253000FFF7ECF900B91024012231462846FFF7D5
:10254000EEF94FF40066002231462846FFF7E7F91E
:1025500001212846FFF7DAF900B9022402212846B2
:10256000FFF7D4F900B9052404212846FFF7CEF976
:1025700000B9082408212846FFF7C8F908B94FF424
:102580008074012231462846FFF7C9F94FF480567E
:10259000002231462846FFF7C2F901212846FFF7FD
:1025A000B5F900B9032402212846FFF7AFF900B9B5
:1025B000062404212846FFF7A9F900B909240821B7
:1025C0002846FFF7A3F900B9112401223146284615
:1025D000FFF7A5F9204670BD00080240704710B50E
:1025E000FFF7A8F9BDE81040FFF733BD30B5254827
:1025F00093B00025016841F080510160006800F04F
:10260000805012902048016821F4404141F48041FB
:1026100001600068022400F4404012900120039001
:1026200010200490009406940820CDE9075048201B
:10263000CDE909040B9468460C94FFF747FB00B101
:10264000FEE70DA90F2081E831004FF48050109073
:10265000119002210DA8FFF72FFA00B1FEE7FFF756
:10266000C3FA4FF47A71B0FBF1F0FFF7DEFC0420FF
:10267000FFF7CEFC00221146501EFFF7EBF913B016
:1026800030BD000040380240007000401048016832
:1026900041F4700101600F48016841F001010160DF
:1026A0000C4A00210832116002680B4B1A4002608C
:1026B000031D0A4A1A60026822F48022026005485B
:1026C0000C300160024958068039086070470000EC
:1026D00088ED00E000380240FFFFF6FE10300024D5
:1026E00010B5806B0021C185C184FFF7B6FC10BD19
:1026F0000168CA6822F49072CA6001684A6922F0CF
:1027000001024A61202180F83A10704710B590F814
:102710003A10222901D0022010BD8168B1F5805FF6
:1027200011D00169002901681FD0496801F07F03B9
:10273000816A4A1C82620B70C18D491E0904090C12
:10274000C18518D026E00269816A002A02685268B1
:1027500005D0D2B20A80816A491C8162ECE7C2F3DB
:1027600008020A80816A891CF7E74A68816A4B1C63
:1027700083620A70E0E70168CA6822F49072CA6056
:1027800001684A6922F001024A61202180F83A106A
:10279000FFF74CFD002010BD2DE9F0410446006814
:1027A000016921F44052E168114301612168C86860
:1027B00049F20C6290432369A268E5691A43636990
:1027C0002B431A430243CA602168486920F44072CF
:1027D000A06910434861E1696425B1F5004F97484D
:1027E000974A21684FF032083FD0914201D0814290
:1027F0007CD1FFF70FFA00EBC00101EB001061681C
:102800008900B0FBF1F6FFF705FA00EBC00101EB20
:10281000001061688900B0FBF1F0B0FBF5F06FF0DB
:102820001801484306EB800108EB0110B0FBF5F0FE
:1028300000F0F006FFF7EEF900EBC00101EB00102D
:1028400061688900B0FBF1F0B0FBF5F006EB001613
:10285000FFF7E0F900EBC00101EB001061688900AF
:10286000B0FBF1F7FFF7D6F9D2E0914201D08142F7
:102870003DD1FFF7CFF900EBC00101EB001061681B
:102880004900B0FBF1F0B0FBF5F00601FFF7C2F92B
:1028900000EBC00101EB001061684900B0FBF1F7EB
:1028A000FFF7B8F900EBC00101EB001061684900C7
:1028B000B0FBF1F0B0FBF5F06FF01801484307EB07
:1028C000800108EBC100B0FBF5F000F0F80006EB6A
:1028D0004006FFF79FF900EBC00101EB00106168B3
:1028E0004900B0FBF1F7FFF795F93CE055E0FFF741
:1028F00081F900EBC00101EB001061684900B0FBF9
:10290000F1F0B0FBF5F00601FFF774F900EBC00140
:1029100001EB001061684900B0FBF1F7FFF76AF9BD
:1029200000EBC00101EB001061684900B0FBF1F061
:10293000B0FBF5F06FF01801484307EB800108EB9E
:10294000C100B0FBF5F000F0F80006EB4006FFF721
:1029500051F900EBC00101EB001061684900B0FBC8
:10296000F1F7FFF747F900EBC00101EB00106168D8
:102970004900B0FBF1F0B0FBF5F06FF018014843EF
:1029800007EB800108EBC100B0FBF5F000F0070099
:10299000216830448860BDE8F081FFF72BF900EB37
:1029A000C00101EB001061688900B0FBF1F6FFF790
:1029B00021F900EBC00101EB001061688900B0FB58
:1029C000F1F0B0FBF5F06FF01801484306EB800121
:1029D00008EB0110B0FBF5F000F0F006FFF70AF984
:1029E00000EBC00101EB001061688900B0FBF1F061
:1029F000B0FBF5F006EB0016FFF7FCF800EBC001AA
:102A000001EB001061688900B0FBF1F7FFF7F2F805
:102A100000EBC00101EB001061688900B0FBF1F030
:102A2000B0FBF5F06FF01801484307EB800108EBAD
:102A30000110B0FBF5F000F00F00A9E70014014011
:102A40000010014090F83910212901D00220704770
:102A50008168B1F5805F016A0BD04A1C026202688E
:102A600009785160C18C491E0904090CC1840ED03B
:102A700017E009880268C1F3080151600169002963
:102A8000016A02D0491C0162ECE7891CFBE701687E
:102A9000CA6822F08002CA600068C16841F0400143
:102AA000C160002070472DE9F041984617460E4658
:102AB0000446069D1DE0681C1BD02DB1FEF734FFB7
:102AC000A0EB0800A84214D92068C16821F4D07195
:102AD000C1602068416921F001014161202084F832
:102AE000390084F83A00002084F838000320BDE85B
:102AF000F0812068006836EA000004D00020B84267
:102B0000D9D00020F3E70120F9E700000148FFF7E2
:102B1000A5BA0000A0000020FEE700000FB4054B9E
:102B200010B503A9044A029800F018F810BC5DF82B
:102B300014FB00001D2E00082C00002002E008C835
:102B4000121F08C1002AFAD170477047002001E027
:102B500001C1121F002AFBD1704700002DE9FF4F71
:102B60008DB09B460F460446002606E025280BD074
:102B70005A460F999047641C761C20780028F5D19E
:102B800011B03046BDE8F08F0025A84601229849D3
:102B900000E0054314F8013F203B02FA03F008422D
:102BA000F7D120782E2817D114F8010F45F004052D
:102BB0002A280ED06FF02F022078A0F130010929C9
:102BC0000AD808EB880102EB410100EB0108641C04
:102BD000F2E757F8048B641C20786C280DD004DCD5
:102BE0004C2812D06A2811D104E074280DD07A281C
:102BF0000CD10AE045F4001507E0617845F4801532
:102C0000814202D1641C05F58015641C2078692876
:102C100044D008DC0028B3D0582867D063280FD0F0
:102C2000642808D13AE0702865D0732812D075283E
:102C30005AD078285AD05A460F999047761CD5E03A
:102C400017F8040B8DF8000000208DF80100E9460C
:102C5000012003E057F8049B4FF0FF3069074FF065
:102C6000000501D40AE06D1C45450DDA8542FADB0A
:102C700019F805100029F6D106E06D1C8542FCDB31
:102C800019F805100029F8D12E4404E019F8010BB9
:102C90005A460F9990476D1EF8D2A7E00A200021EE
:102CA000CDE90801C5F3025002280CD001CFC117AD
:102CB000021E71F100020CDA0023D0EB030063EB7B
:102CC00001012D2208E0FF1D27F00707F7E80201A8
:102CD000EEE72A0504D52B228DF8282001223CE0BE
:102CE000EA073AD02022F7E70A2000E0102000216E
:102CF000CDE9080107E01020002145F00405CDE9E9
:102D000008014FF00808C5F30250022810D001CF87
:102D100000214FF0000A2A0720D52278702A0DD012
:102D2000DDE908C38CF0100C5CEA030C0CD015E054
:102D3000FF1D27F00707F7E80201EAE740228DF8B8
:102D400028204FF0010A0CE050EA010306D030239E
:102D50008DF828308DF82920022292462278582AB0
:102D600004D024A20DF120090B9209E026A2F9E774
:102D7000DDE90823FDF744FA0B9B9B5C09F8013D54
:102D800050EA0102F4D1ADEB090020300890680749
:102D900001D44FF001080899884503DD0898A8EB95
:102DA000000000E000208046002506E00AA85A4600
:102DB000405D0F9990476D1C761C5545F6DB04E08D
:102DC00030205A460F999047761CB8F10001A8F1BF
:102DD0000108F5DC05E019F8010B5A460F999047F8
:102DE000761C0899481E08900029F4DC641CC4E68F
:102DF00009280100303132333435363738396162D1
:102E00006364656600000000303132333435363794
:102E100038394142434445460000000013B564235D
:102E2000012269460248FFF702FA00981CBD000023
:102E3000A00000208AB0FEF785FDFFF7D7FBFFF763
:102E4000D7FAFFF7B5FAFFF78BFA34483249002476
:102E500001604FF4E131C0E901140C21C460C0E904
:102E600004418461C461FFF781F900B1FEE72B489A
:102E70007038FDF7B9FC0120CDE9064003940494B5
:102E8000CDE908042548059400940194029469460C
:102E90002838FDF78FFD00B1FEE7FFF727FA1F483E
:102EA0002838FEF76FFA00B1FEE71C4803212838E6
:102EB000FDF7FEFC00B1FEE718482838FEF762FA7D
:102EC000164802212838FDF7F3FC154C154E4FF437
:102ED00048674FF4007511487038FDF785FCB4F968
:102EE0000000B84202DD5020FDF7A6FAFFF702FB12
:102EF00020B1FDF7A1FA6420FEF724FC29463046F4
:102F0000FEF704FD0028E6D1C820FEF71BFC0020D8
:102F1000FDF792FADFE7000000440040A000002027
:102F20000000002000080240000000000000000037
:102F3000010203040607080900000000010203045F
:102F4000602F000800000020300000003C2B00082B
:102F5000902F000830000020E80400004C2B0008EF
:102F60000000000000000000000000000000000061
:102F70000000000000000000010000001000000040
:102F8000000000000024F400000000000000000029
:04000005080001C529
:00000001FF
